:100000000C94E6000C9403010C9403010C9403017E
:100010000C9403010C9403010C9403010C94030150
:100020000C9403010C9403010C9403010C94030140
:100030000C9403010C9403010C9403010C94030130
:100040000C9484090C9403010C9403010C94030197
:100050000C94F0110C94A6110C9403010C94030160
:100060000C9403010C9403010C9403010C94030100
:100070000C9415120C94CB110C9403014242443998
:100080003030302076332E322E3400537461727447
:10009000696E672075702E2E2E005265616479009E
:1000A000464C4D09004B5009004D544E2D535452AF
:1000B00054004D544E2D53544F50004452534E2D26
:1000C0004F504E44004452534E2D434C534400561F
:1000D000414C524D2D535452540056414C524D2DCB
:1000E00053544F5000504D502D4F4E00504D502DF9
:1000F0004F4646004D53520900C801E30C5701B961
:100100000CA601530D9F01DD0E97014F0D6F01C825
:100110000E7401720DC301820CBE017E0CB801DCAD
:100120000CAE01CE0C6301C00C5C01BA0E790178F3
:100130000D6701C10E51016C0DB301D50C9301C7C0
:100140000C7D01CF0E8F01840D8701D60E82017EBA
:100150000D5245534554004452534E004D544E2DBC
:100160004D53004D544E00504D502D5448520049AF
:1001700043414C004952415700504D5000564341B5
:100180004C00565241570056494E2D544852005685
:10019000494E0053544B00464C4D2D544F5400468D
:1001A0004C4D2D4D5300464C4D2D435552004C4760
:1001B000485400524C5931004C4344424C004C438B
:1001C0004432004C434431004155580011241FBEB5
:1001D000CFEFD4E0DEBFCDBF11E0A0E0B1E0EAE7B1
:1001E000F1E302C005900D92A232B107D9F714E0F5
:1001F000A2E2B1E001C01D92A337B107E1F70E946E
:1002000089130C94BB180C940000EF92FF921F937B
:10021000CF93DF930F92CDB7DEB7FC017B01122F96
:1002200080E0BF0149830E94021180E069E00E94E2
:100230006910F70180814981842311F061E301C0D5
:1002400060E380E00E94691080E062E071E00E945B
:10025000CD108091DB02109518231093DB020F90D4
:10026000DF91CF911F91FF90EF9008956F927F9251
:100270008F929F92AF92BF92CF92DF92EF92FF92B6
:100280000F931F93CF93DF933C01EB018091F10219
:10029000882329F48091F802882309F454C081EF5F
:1002A00092E064E670E00E9499054C011092F10220
:1002B00088EF92E064E670E00E9499055C0110927C
:1002C000F8024B895C896D897E890F851889298997
:1002D0003A89C401A0E0B0E0EDE0880F991FAA1FA1
:1002E000BB1FEA95D1F7841B950BA60BB70BBC017E
:1002F000CD01A90198010E947C1669017A014B8900
:100300005C896D897E890F85188929893A89C5019B
:10031000A0E0B0E0FDE0880F991FAA1FBB1FFA956F
:10032000D1F7841B950BA60BB70BBC01CD01A9011E
:1003300098010E947C169E8E8D8EDA8EC98EB8A290
:10034000AF8E3C8F2B8F80E0B3010E94021180E0C2
:1003500069E00E9469108D8D9E8D62E048E153E056
:100360000E94510580E068E173E00E94CD1080E0BA
:1003700060E071E00E94CD108F8D98A162E048E1AD
:1003800053E00E94510580E068E173E00E94CD10C7
:1003900080E062E071E00E94CD101092180389A104
:1003A0008B7F89A3DF91CF911F910F91FF90EF90E9
:1003B000DF90CF90BF90AF909F908F907F906F9085
:1003C00008952F923F924F925F926F927F928F92F9
:1003D0009F92AF92BF92CF92DF92EF92FF920F93D4
:1003E0001F93CF93DF93CDB7DEB72C970FB6F8945A
:1003F000DEBF0FBECDBF9E838D837C876B878091D0
:10040000F102882369F48091F802882349F48091ED
:10041000FF02882329F480910603882309F4F9C098
:1004200081EF92E00E94E4172B013C011092F1024F
:1004300088EF92E064E670E00E9499051C016C016F
:10044000EE24FF241092F8028FEF92E00E94E4174E
:1004500069837A838B839C831092FF0286E093E00A
:1004600064E670E00E9499058C01AC0160E070E0E8
:100470001092060320E0421620E0520621E06206B8
:1004800020E0720648F0AB85BC8517968D919C9153
:1004900018972C016624772489819A81AB81BC81CD
:1004A0008030E0E09E07E1E0AE07E0E0BE0768F0E4
:1004B000AB85BC851B968D919C911C974C01AA2401
:1004C000BB2489829A82AB82BC82DB01CA018C196F
:1004D0009D09AE09BF092DE0880F991FAA1FBB1FF8
:1004E0002A95D1F729813A814B815C8124193509FC
:1004F00046095709BC01CD010E947C1649015A01E9
:100500006DE0CC0CDD1CEE1CFF1C6A95D1F7CA0116
:10051000B901A30192010E941416DC01CB01C81A93
:10052000D90AEA0AFB0AAB85BC855D968D919C9140
:100530005E97A0E0B0E0EDE0880F991FAA1FBB1FF7
:10054000EA95D1F78C199D09AE09BF09BC01CD010F
:10055000A50194010E947C162F83388749875A870A
:10056000EB85FC85878D90A1A0E0B0E06DE0880F61
:10057000991FAA1FBB1F6A95D1F78C199D09AE0957
:10058000BF09BC01CD01A50194010E947C16AB8579
:10059000BC851A963C922E92199718965C924E92B0
:1005A00017971E961C930E931D97E981FA811C964E
:1005B000FC93EE931B971F968D929D92AD92BC92E9
:1005C0005297FD01C38AD48AE58AF68A8F8198857D
:1005D000928F818F348F238F66277727CB016C19F9
:1005E0007D098E099F09A50194010E947C16AB85A7
:1005F000BC8558963C932E93579757968D919C9116
:100600005897B4E080309B0720F0EB85FC85108E76
:10061000178A80E06D817E810E94021180E069E08E
:100620000E946910AB85BC8517968D919C91189797
:1006300068E173E04AE050E00E945B1880E068E106
:1006400073E00E94CD1080E060E071E00E94CD1068
:10065000EB85FC858185928562E048E153E00E944C
:10066000510580E068E173E00E94CD1080E060E019
:1006700071E00E94CD10AB85BC851B968D919C913D
:100680001C9768E173E04AE050E00E945B1880E04C
:1006900068E173E00E94CD1080E060E071E00E94AC
:1006A000CD10EB85FC858585968562E048E153E0B9
:1006B0000E94510580E068E173E00E94CD1080E067
:1006C00062E071E00E94CD1010921803AB85BC85EA
:1006D00091968C919197877F91968C9391972C9678
:1006E0000FB6F894DEBF0FBECDBFDF91CF911F9143
:1006F0000F91FF90EF90DF90CF90BF90AF909F90C1
:100700008F907F906F905F904F903F902F900895C3
:100710000F931F93CF93DF939C01EB0180E0B9010E
:100720000E94021180E069E00E94691089819A812B
:1007300008E113E0B8014AE050E00E945B1880E055
:10074000B8010E94CD1080E062E071E00E94CD10FF
:100750001092180389A18F7E89A3DF91CF911F91F9
:100760000F910895CF92DF92EF92FF92CF93DF9394
:100770009C01EB0180E0B9010E94021180E069E078
:100780000E94691029813A818F89988D8217930779
:10079000D0F46F85788989899A8929813A81CB88B3
:1007A000DC88ED88FE8840E050E00E9414166C0D55
:1007B0007D1D8E1D9F1D20E030E240E050E00E9434
:1007C0007C16C90102C080E090E062E048E153E09D
:1007D0000E94510580E068E173E00E94CD1080E046
:1007E00062E071E00E94CD101092180389A18F7D04
:1007F00089A3DF91CF91FF90EF90DF90CF90089584
:10080000FF920F931F93CF93DF938C01EB01F42E94
:1008100080910D03882381F08DE093E060E070E02B
:100820004AE050E00E94C816DC01CB01888399831E
:10083000AA83BB8310920D0380E0B8010E940211CD
:1008400080E069E00E946910688179818A819B81DA
:100850004FE153E02AE030E00E94361880E06FE17B
:1008600073E00E94CD1010921F0380E062E071E0FF
:100870000E94CD102091DA0281E090E002C0880F42
:10088000991FFA94E2F7809582238093DA02DF9130
:10089000CF911F910F91FF900895FF920F931F9397
:1008A000CF93DF938C01EB01F42E8091F10288232A
:1008B000B1F081EF92E00E94E417DC01CB011092CD
:1008C000F102880F991FAA1FBB1F8F3F2FEF9207BE
:1008D00020E0A20720E0B20710F49983888380E02B
:1008E000B8010E94021180E069E00E9469108881CD
:1008F00099819695879568E173E04AE050E00E94FF
:100900005B1880E068E173E00E94CD10109218033C
:1009100080E062E071E00E94CD102091DA0281E077
:1009200090E002C0880F991FFA94E2F78095822325
:100930008093DA02DF91CF911F910F91FF9008957C
:10094000CF93DF9380E064EF70E00E940211CAE26F
:10095000D3E080E0BE010E94CD1080E069E00E94FB
:100960006910CE0160E070E04FE450E00E941A1878
:10097000C9E7D3E080E0BE010E94CD1080E062E0D4
:1009800071E00E94CD10CE0160E070E048E250E0DE
:100990000E941A188091DA028F7E8093DA02DF912A
:1009A000CF9108950F931F93CF93DF93182F60E09B
:1009B0000E948213412F50E023E530E0429FE00186
:1009C000439FD00D529FD00D1124CF55DC4F04E131
:1009D0008881882311F0899101C080E20E941F1351
:1009E0000150B1F78091DA02112311F48F7D01C01B
:1009F0008F7B8093DA02DF91CF911F910F91089541
:100A0000CF92DF92EF92FF920F931F93CF93DF93DA
:100A1000482F50E023E530E0429F8001439F100DB6
:100A2000529F100D11240F551C4F60E00E9482133D
:100A3000C0E0D0E0A1E5EA2EF12CE00EF11EB2E517
:100A4000CB2ED12CC00ED11EF7018081F601608122
:100A50009E01280F311DC90170E00E944716800FCA
:100A6000911FFC0180810E941F132196C431D10582
:100A700059F71092480410924704F7018081F6015B
:100A8000608190E0019670E00E944716F701808334
:100A9000DF91CF911F910F91FF90EF90DF90CF905A
:100AA00008951F93CF93DF93162FEA01613021F44D
:100AB0008A30910518F520C0623039F48A309105EA
:100AC00090F084369105D0F417C06330B9F48A30C1
:100AD000910530F420E3288329832A8323960EC0CE
:100AE0008436910528F420E328832983229606C0C2
:100AF00023E0883E920710F420E32993BE014AE0E8
:100B000050E00E945B188991FE018823E1F7812F54
:100B10008F5F04C0DF019E919083FD0111501E3F45
:100B2000C9F7C81BD1098EE28883DF91CF911F914D
:100B30000895CF92DF92EF92FF920F931F93CF937E
:100B4000DF9300D0CDB7DEB77A836983DC012C91C7
:100B5000322F30533A3010F4FC0104C02E3209F029
:100B600058C0FACF4E2F3F2F2191522F50535A3059
:100B7000C8F32E3209F041C0042F132FF80111924F
:100B80008F010E94E41729813A8140E050E00E94E1
:100B900014166B017C0189819A816AE070E00E94E1
:100BA00033167A836983EAE0F0E01BC049815A81F9
:100BB000992787FD9095C097849F9001859F300D60
:100BC000949F300D1124C901A0E0B0E0C80ED91ED9
:100BD000EA1EFB1E89819A81BF010E9433167A8327
:100BE000698389819A81009791F0D8018D918D0157
:100BF000982F90539A30D0F20AC00E94E4172981AE
:100C00003A8140E050E00E9414166B017C01C6015D
:100C100002C080E090E00F900F90DF91CF911F9184
:100C20000F91FF90EF90DF90CF90089584E287BD01
:100C300084B5826084BD85B5846085BDEEE6F0E054
:100C400080818260808308951092940281E0809375
:100C5000B6021092B5021092D7021092960210922C
:100C60009502109297021092980210929902109297
:100C70009A021092B8021092B7021092B902109222
:100C8000BA021092BB021092BC02EAE7F0E0808147
:100C900087608083AEE7B0E08C9183608C93ACE793
:100CA000B0E08C9180648C93808180688083109206
:100CB000D8028C91807F8C93808180648083809126
:100CC000B50282608093B502089511B814B817B8C0
:100CD0001AB884B1806F84B985B18F7085B983B13A
:100CE0008F6083B985B18F6085B91092E40210924C
:100CF000E9021092EA021092EB021092EC021092BA
:100D0000EE021092ED021092DC021092DD021092BF
:100D1000DE021092DF0282B18C6182B98BB18067F2
:100D20008BB90E9A069816980F9A079817983E9ABC
:100D3000369846983F9A37984798579A4F985F98B1
:100D40000895CF92DF92EF92FF920F931F9310922C
:100D5000E5021092E6021092E7021092E80288E49F
:100D60008093D90288EC90E09093F0028093EF0298
:100D700088E090E09093E1028093E00280E29EE4BC
:100D80009093E3028093E20210929C0210929B02E5
:100D900010929E0210929D0286E692E09093A0022D
:100DA00080939F0280EB94E09093A2028093A10233
:100DB0008091A1029091A20220919D0230919E0209
:100DC000E0919F02F091A002C0909B02D0909C0203
:100DD000A0E0B0E0A90160E070E0841B950BA60BD9
:100DE000B70B1DE0880F991FAA1FBB1F1A95D1F7DB
:100DF0009F0140E050E0EE24FF242C193D094E09EC
:100E00005F09BC01CD010E947C162093A3023093A0
:100E1000A4024093A5025093A602C0909D02D090D8
:100E20009E026091A3027091A4028091A50290910C
:100E3000A60220919B0230919C02EE24FF240DE03B
:100E4000CC0CDD1CEE1CFF1C0A95D1F740E050E0F5
:100E50000E941416DC01CB01C81AD90AEA0AFB0A5F
:100E6000C092A702D092A802E092A902F092AA0230
:100E70008091A7029091A802A091A902B091AA0224
:100E80002091A3023091A4024091A5025091A602A4
:100E90007C018D0166277727CB016E197F09800BB6
:100EA000910B0E947C163093AC022093AB02809190
:100EB000AB029091AC0204E08030900720F01092D9
:100EC000AC021092AB028AE194E09093B20280935C
:100ED000B1026091B1027091B2028091A70290912B
:100EE000A802A091A902B091AA022091A302309178
:100EF000A4024091A5025091A6026B01EE24FF24AA
:100F00001DE0CC0CDD1CEE1CFF1C1A95D1F7C81A95
:100F1000D90AEA0AFB0AC701B6010E947C1630937F
:100F2000AE022093AD028EE794E09093B4028093DA
:100F3000B3026091B3027091B4028091A7029091C4
:100F4000A802A091A902B091AA022091A302309117
:100F5000A4024091A5025091A6026B01EE24FF2449
:100F60000DE0CC0CDD1CEE1CFF1C0A95D1F7C81A55
:100F7000D90AEA0AFB0AC701B6010E947C1630931F
:100F8000B0022093AF028FE790E09093BE0280936F
:100F9000BD021092C0021092BF0284E393E09093CE
:100FA000C2028093C10288E893E19093C4028093C7
:100FB000C3028091C3029091C4022091BF0230917C
:100FC000C002E091C102F091C202C090BD02D09077
:100FD000BE02A0E0B0E0A90160E070E0841B950BC8
:100FE000A60BB70B1DE0880F991FAA1FBB1F1A95F0
:100FF000D1F79F0140E050E0EE24FF242C193D0979
:101000004E095F09BC01CD010E947C162093C502E8
:101010003093C6024093C7025093C802C090BF02EB
:10102000D090C0026091C5027091C6028091C70243
:101030009091C8022091BD023091BE02EE24FF249F
:101040000DE0CC0CDD1CEE1CFF1C0A95D1F740E036
:1010500050E00E941416DC01CB01C81AD90AEA0A32
:10106000FB0AC092C902D092CA02E092CB02F0926F
:10107000CC028091C9029091CA02A091CB02B0919A
:10108000CC022091C5023091C6024091C702509116
:10109000C8027C018D0166277727CB016E197F0975
:1010A000800B910B0E947C163093CE022093CD02D0
:1010B0008091CD029091CE0204E08030900720F024
:1010C0001092CE021092CD0286E990E09093D40265
:1010D0008093D3026091D3027091D4028091C902AF
:1010E0009091CA02A091CB02B091CC022091C5028E
:1010F0003091C6024091C7025091C8026B01EE24A4
:10110000FF24EDE0CC0CDD1CEE1CFF1CEA95D1F7B2
:10111000C81AD90AEA0AFB0AC701B6010E947C165E
:101120003093D0022093CF028CE390E09093D602CC
:101130008093D5026091D5027091D6028091C90248
:101140009091CA02A091CB02B091CC022091C5022D
:101150003091C6024091C7025091C8026B01EE2443
:10116000FF24FDE0CC0CDD1CEE1CFF1CFA95D1F732
:10117000C81AD90AEA0AFB0AC701B6010E947C16FE
:101180003093D2022093D1021F910F91FF90EF90E4
:10119000DF90CF900895823091F0833018F4813041
:1011A00039F505C08330A1F0843011F519C06150C4
:1011B0006430F0F4E62FF0E0E05FFE4F07C06150CE
:1011C0006430B0F4E62FF0E0EC5EFE4F80810895CD
:1011D0006150643068F4E62FF0E0E85EFE4FF6CF31
:1011E0006150643038F4E62FF0E0E45EFE4FEECF5D
:1011F00080E0089580E008950F931F932091780078
:10120000309179008091D802882349F48091970227
:1012100090919802A0919902B0919A022CC080916D
:101220002301909124018217930720F43093240125
:1012300020932301809125018F5F809325018231C6
:1012400070F0809123019091240190932701809365
:101250002601109224011092230110922501209161
:101260002601309127018091B9029091BA02A09194
:10127000BB02B091BC02492F5A2F6B2F77278901EF
:1012800020E030E0080F191F2A1F3B1F041B150B1D
:10129000260B370B8091D8027727632F522F412FCF
:1012A0008823B1F400939702109398022093990237
:1012B00030939A02509396024093950280917C005D
:1012C000807F816080937C0081E08093D80213C08E
:1012D0000093B9021093BA022093BB023093BC0270
:1012E0005093B8024093B70280917C00807F809336
:1012F0007C001092D80280917A00806480937A00FA
:10130000CA011F910F9108951F920F920FB60F926D
:1013100011240F931F932F933F934F935F936F93DA
:101320007F938F939F93AF93BF93CF93EF93FF934D
:10133000C091D8020E94FC08CC2351F52091AD0247
:101340003091AE028217930768F48091B50281FD57
:1013500005C08091B50281608093B5028091B5028D
:10136000826013C02091AF023091B0022817390774
:10137000C0F58091B50281FF05C08091B502816002
:101380008093B5028091B5028D7F8093B50229C00C
:101390002091CF023091D0022817390768F480914C
:1013A000D70281FD05C08091D70281608093D7026A
:1013B0008091D702826013C02091D1023091D20275
:1013C0008217930770F48091D70281FF05C0809146
:1013D000D70281608093D7028091D7028D7F80935E
:1013E000D70282B18C6182B9159885B18F6085B9B9
:1013F00085B18F7085B98BB180678BB98BB18BB993
:1014000021E04C9B20E04D992260059B04C0809117
:10141000D90283FD05C0059904C08091D90283FFDC
:1014200024604E9B04C08091D90286FD05C04E9970
:1014300004C08091D90286FF2068189B2860199B00
:1014400020611A9B20621B9B20644091220142274D
:10145000342F40FD02C086E005C08091050188233D
:1014600029F0815080930501C0E001C0C1E031FD49
:1014700002C086E005C080910601882321F08150DA
:101480008093060101C0C26032FD05C08091070152
:101490009091080107C08091090190910A0100977D
:1014A00031F0019790930A018093090101C0C46053
:1014B00047FD02C080E205C080910B01882321F026
:1014C000815080930B0101C0C06833FD02C080E2EF
:1014D00005C080910C01882329F0815080930C0174
:1014E00080E002C0C86081E034FD02C090E205C027
:1014F00090910D01992321F0915090930D0102C01C
:10150000C06182E035FD02C090E205C090910E01FD
:10151000992321F0915090930E0102C0C06283E0A4
:1015200036FD02C090E205C090910F01992321F091
:10153000915090930F0102C0C06484E09C2F90955D
:101540003091220193232C23922B909322012091FE
:10155000ED023091EE022115310551F02091ED029E
:101560003091EE02215030403093EE022093ED0294
:101570000C2F10E09801237030702115310569F1AE
:101580002091D90222602093D9024091E502509126
:10159000E6026091E7027091E8024F5F5F4F6F4F84
:1015A0007F4F4093E5025093E6026093E702709309
:1015B000E8024091E9025091EA026091EB027091D9
:1015C000EC024F5F5F4F6F4F7F4F4093E9025093A4
:1015D000EA026093EB027093EC0298012877307076
:1015E0002115310509F455C02091D90220FD51C0C3
:1015F000987709F44EC023B12C9A91E0392F3A958F
:10160000F1F743B150E04F7050702F7030E02C98DC
:101610004217530709F090C02D9A9A95F1F743B1FC
:1016200050E04F7050704217530711F460E001C052
:1016300062E02D986623E1F42E9A91E09A95F1F7F5
:1016400043B150E04F7050704217530709F063E008
:101650002E98662369F42F9A91E09A95F1F743B199
:1016600050E04F7050704217530709F064E02F9814
:10167000882379F0662369F00E94CB088093E40206
:101680008091E402882329F08091D90281608093BF
:10169000D90202FF20C08091D90284608093D902D0
:1016A0008091220182FF0AC08091D90280618093DB
:1016B000D9028091E2029091E30209C08091D9029F
:1016C0008F7E8093D9028091E0029091E102909305
:1016D000080180930701C7FF12C08091D902806280
:1016E0008093D9028091220187FF04C08091D902A2
:1016F000806803C08091D9028F778093D90280914E
:1017000047049091480401969093480480934704BD
:10171000FF91EF91CF91BF91AF919F918F917F9169
:101720006F915F914F913F912F911F910F910F906A
:101730000FBE0F901F90189561E09ACFFB01259185
:101740003491F9014491DC0102C0F90144918D9179
:10175000882331F0442321F02F5F3F4F8417A9F3F2
:10176000992787FD9095242F332727FD3095821BDD
:10177000930B0895FF920F931F93CF93DF93F82E4F
:10178000E0912001F09121018DE0F81631F08AE01E
:10179000F81619F089E0F81661F5108288E291E0F8
:1017A00069EF70E046E150E024E030E00EE91BE034
:1017B0000E949716EC01009799F0FC0132968591F2
:1017C00094918C0180E0B8010E94850FFE01859103
:1017D00094918093490490934A048F2DF8010995C0
:1017E00088E291E0909321018093200110922801DA
:1017F00012C081E0EF32F80740F4DF01FD92B093B0
:101800002101A0932001118206C088E291E090930B
:10181000210180932001DF91CF911F910F91FF90C3
:1018200008958D3011F08A30A1F5409132014423A2
:1018300039F0E0913001F0913101E40FF11D108297
:101840008091DA02662311F4806201C08064809383
:10185000DA0270E023E530E0629FC001639F900DE3
:10186000729F900D11248C569D4FFC01E15AFE4F42
:101870004083825A9E4FFC011082109232011092D6
:1018800031011092300180E06AEB7BE00E94850F0D
:101890000895893001F570E023E530E0629FC001D2
:1018A000639F900D729F900D11249C012C563D4F0B
:1018B000F901E15AFE4F1082225A3E4FF90110827F
:1018C0008F559C4F9093310180933001FC01108221
:1018D000109232010895209130013091310121158B
:1018E000310559F090913201903538F4290F311DAE
:1018F000F90180839F5F90933201089561E00E9417
:10190000110C089560E00E94110C0895FB018D30C8
:1019100011F08A30C1F480913301882361F4309151
:10192000DB0281E090E002C0880F991F2A95E2F760
:10193000382B3093DB021092330180E06AEB7BE0BE
:101940000E94850F0895893099F090913301992371
:1019500079F4813321F48081842B808306C0803325
:1019600021F4808140954823408381E080933301B6
:10197000089569ED72E040E426E00E94860C089527
:1019800069ED72E048E025E00E94860C08956BE264
:1019900070E040E824E00E94860C089568E270E060
:1019A00040E823E00E94860C089562E270E040E87F
:1019B00022E00E94860C089568E270E040E421E095
:1019C0000E94860C089562E270E040E420E00E94EC
:1019D000860C08958D3011F08A3019F5809134010C
:1019E000882339F0E0913501F0913601E80FF11DBF
:1019F00010822091DA0281E090E002C0880F991FE6
:101A00006A95E2F7282B2093DA02109234011092A3
:101A100036011092350180E06AEB7BE00E94850F71
:101A20000895893011F58DE093E09093360180930D
:101A3000350180910D03882389F1109236011092AF
:101A400035018091DC029091DD02A091DE02B0911F
:101A5000DF020196A11DB11D8093DC029093DD028F
:101A6000A093DE02B093DF020895409135015091BA
:101A700036014115510591F0909134019A3070F47E
:101A8000282F30E0205330402A30310538F4490FF8
:101A9000511DFA0180839F5F90933401089561E0A6
:101AA0000E94EA0C089560E00E94EA0C0895FB0190
:101AB0008D3011F08A3079F4208181E090E002C00D
:101AC000880F991F4A95E2F7282B208380E06AEB64
:101AD0007BE00E94850F08956AED72E047E00E9466
:101AE000570D089567ED72E044E00E94570D089588
:101AF00067ED72E045E00E94570D089565EB72E0D6
:101B000044E00E94570D089565EB72E045E00E94A5
:101B1000570D0895FB018D3019F08A3009F042C04D
:101B2000A0913701AA2321F0B0E0AF50BD4F1C9225
:101B3000A0913801AA2321F0B0E0A850BD4F1C921B
:101B4000A0913901AA2321F0B0E0A150BD4F1C9211
:101B5000A0913A01AA2321F0B0E0AA5FBC4F1C92E9
:101B6000208181E090E002C0880F991F4A95E2F73A
:101B7000282B208310923A011092390110923801DB
:101B80001092370110923C0110923B0110923E01DD
:101B900010923D0110923F0180E06AEB7BE00E94D1
:101BA000850F0895893009F0C8C090913F019217C0
:101BB00008F0C3C0992371F58091F1028823E1F008
:101BC00010923E0110923D0110923C0110923B0197
:101BD0008091DC029091DD02A091DE02B091DF02E3
:101BE0000196A11DB11D8093DC029093DD02A093AC
:101BF000DE02B093DF020CC081EF92E090933C01D3
:101C000080933B0187E391E090933E0180933D01F7
:101C100081E090C0913071F58091F8028823E1F065
:101C200010923E0110923D0110923C0110923B0136
:101C30008091DC029091DD02A091DE02B091DF0282
:101C40000196A11DB11D8093DC029093DD02A0934B
:101C5000DE02B093DF020CC088EF92E090933C016B
:101C600080933B0188E391E090933E0180933D0196
:101C700082E060C0923071F58091FF028823E1F02C
:101C800010923E0110923D0110923C0110923B01D6
:101C90008091DC029091DD02A091DE02B091DF0222
:101CA0000196A11DB11D8093DC029093DD02A093EB
:101CB000DE02B093DF020CC08FEF92E090933C0104
:101CC00080933B0189E391E090933E0180933D0135
:101CD00083E030C0933009F04CC080910603882324
:101CE000E1F010923E0110923D0110923C011092E1
:101CF0003B018091DC029091DD02A091DE02B09167
:101D0000DF020196A11DB11D8093DC029093DD02DC
:101D1000A093DE02B093DF020CC086E093E09093C4
:101D20003C0180933B018AE391E090933E018093D4
:101D30003D0184E080933F010895E0913D01F091E1
:101D40003E013097B1F09081963098F4282F30E022
:101D5000205330402A30310510F08E3251F4A091DA
:101D60003B01B0913C01A90FB11D8C9380818F5F25
:101D7000808308956AED72E043E021E00E948A0DBD
:101D8000089567ED72E042E022E00E948A0D089516
:101D900067ED72E043E024E00E948A0D089565EB50
:101DA00072E043E024E00E948A0D089565EB72E042
:101DB00042E022E00E948A0D08956AED72E042E05E
:101DC00021E00E948A0D0895853289F490914001A6
:101DD000992309F068C081E0809340018AE293E092
:101DE000909342018093410180912A0312C08B336A
:101DF00059F590914001992309F055C082E08093F4
:101E0000400189E793E090934201809341018091E2
:101E10007903882309F456C01092420110924101BF
:101E20008091DC029091DD02A091DE02B091DF0290
:101E30000196A11DB11D8093DC029093DD02A09359
:101E4000DE02B093DF0208958F3349F520914001FF
:101E5000222349F181E090E002C0880F991F2A9562
:101E6000E2F790914301982B90934301E091410157
:101E7000F09142011192F0934201E09341019630BA
:101E800039F4109243018091DA0280618093DA0282
:101E900010924001109242011092410108958D303C
:101EA00089F08A3079F090914001992359F0E091BE
:101EB0004101F0914201309729F08193F093420162
:101EC000E093410108958BE494E068E471E042E31B
:101ED00050E00E943A128DE594E06AE771E040E03C
:101EE00051E00E943A12089583E594E06AE772E0B7
:101EF00046E150E00E943A1285E694E060E972E023
:101F000044E050E00E943A120895823040F4E82FF5
:101F1000F0E0EE0FFF1FEC5BFE4F718360830895CE
:101F2000CF93C82FDB01CA018050984DAC4DBF4FF5
:101F300023E0880F991FAA1FBB1F2A95D1F79A018A
:101F4000AB01E4E0220F331F441F551FEA95D1F780
:101F5000BC01CD010E945A1621503040CC2329F0FB
:101F60002093CC003093CD0004C02093C400309364
:101F7000C500CF9108950E94740F109247011092EE
:101F8000460188E98093C90081E040E855E260E0BD
:101F900070E00E94900F10925C04109270041092F6
:101FA0006F04789408950E94630F10924501109277
:101FB000440188E98093C10080E040E052EC61E098
:101FC00070E00E94900F10925B0410926E041092C9
:101FD0006D04789408950E94D30F0E94BB0F08955A
:101FE00090E0F3E0880F991FFA95E1F7855B9B4F2E
:101FF000089590E0A3E0880F991FAA95E1F7835A0E
:102000009B4F0895CF93DF93EB0190E0B3E0880FEF
:10201000991FBA95E1F7855B9B4FFC0122813381C3
:102020002115310551F0248135812115310529F023
:102030000E94471288838FEF01C080E0DF91CF912B
:102040000895CF93DF930F92CDB7DEB781E0BE0145
:102050006F5F7F4F0E940210882319F0898190E002
:1020600002C08FEF9FEF0F90DF91CF910895CF9334
:10207000DF930F92CDB7DEB780E0BE016F5F7F4F79
:102080000E940210882319F0898190E002C08FEF2E
:102090009FEF0F90DF91CF91089590E023E0880F9C
:1020A000991F2A95E1F7855B9B4F0E94EA120895DC
:1020B000E82FF0E033E0EE0FFF1F3A95E1F7E55B24
:1020C000FB4F2481358181E02115310509F080E045
:1020D0000895CF93C82F282F30E043E0220F331FFD
:1020E0004A95E1F7C901835A9B4F0E94B312CC2352
:1020F00031F08091C90080628093C90005C0809151
:10210000C10080628093C100CF910895682F80E064
:102110000E9469100895682F81E00E946910089557
:10212000AF92BF92CF92DF92EF92FF920F931F93E5
:10213000CF93C82F7B018A0190E0E3E0880F991FBD
:10214000EA95E1F7835A9B4FF4E0AF2EB12CA80E2D
:10215000B91EA2E0CA2ED12CC80ED91E11C0F5019D
:1021600080819181F6012081318182179307B8F730
:10217000F70161917F018C2F0E946910015010407E
:102180000115110561F7CF911F910F91FF90EF900D
:10219000DF90CF90BF90AF900895CF92DF92EF92F3
:1021A000FF920F931F93CF93C82F8B0190E0B3E062
:1021B000880F991FBA95E1F7835A9B4F24E0C22EEE
:1021C000D12CC80ED91E32E0E32EF12CE80EF91EF8
:1021D0000CC0F60180819181F70120813181821745
:1021E0009307B8F78C2F0E946910F80161918F0155
:1021F000662379F7CF911F910F91FF90EF90DF90B9
:10220000CF900895CF92DF92EF92FF920F931F939A
:10221000CF93C82FFB018B010F5F1F4F649190E09C
:1022200043E0880F991F4A95E1F7835A9B4F54E08A
:10223000C52ED12CC80ED91EA2E0EA2EF12CE80E34
:10224000F91E10C0F60180819181F7012081318152
:1022500082179307B8F78C2F0E946910F8010F5F5F
:102260001F4F6491662371F7CF911F910F91FF90DB
:10227000EF90DF90CF900895E82FF0E0E55AFB4F04
:1022800080810895E82FF0E0DF01A55ABB4F9FEF52
:102290009C9393E0EE0FFF1F9A95E1F7E35AFB4FF3
:1022A000248135812115310581F0882339F085E6B7
:1022B00094E00E9447128093CE0008958DE594E04B
:1022C0000E9447128093C60008951C92882331F023
:1022D0008091C9008F7D8093C90008958091C100CD
:1022E0008F7D8093C1000895CF93DF93882319F0E9
:1022F0006091CE0002C06091C600282F30E0E90155
:10230000CC0FDD1FFE01EC5BFE4F4081518141157A
:10231000510531F00190F081E02D862F099513C011
:1023200043E0220F331F4A95E1F7C901855B9B4FBC
:102330000E94B312882339F4C359DB4F88819981F5
:10234000019699838883DF91CF9108951F920F9210
:102350000FB60F9211242F933F934F935F936F9378
:102360007F938F939F93AF93BF93EF93FF9380E0FF
:102370000E944211FF91EF91BF91AF919F918F9178
:102380007F916F915F914F913F912F910F900FBE71
:102390000F901F9018951F920F920FB60F92112455
:1023A0002F933F934F935F936F937F938F939F935D
:1023B000AF93BF93EF93FF9381E00E944211FF918F
:1023C000EF91BF91AF919F918F917F916F915F91AD
:1023D0004F913F912F910F900FBE0F901F90189526
:1023E0001F920F920FB60F9211242F933F934F938A
:1023F0005F936F937F938F939F93AF93BF93EF936D
:10240000FF9380E00E947411FF91EF91BF91AF9113
:102410009F918F917F916F915F914F913F912F91FC
:102420000F900FBE0F901F9018951F920F920FB62E
:102430000F9211242F933F934F935F936F937F934A
:102440008F939F93AF93BF93EF93FF9381E00E948D
:102450007411FF91EF91BF91AF919F918F917F91F7
:102460006F915F914F913F912F910F900FBE0F9001
:102470001F901895FC018FB7F89471836083538384
:10248000428317821682158214828FBF0895FC0141
:102490006FB7F89484819581009719F1A081B1817B
:1024A00086819781A80FB91F8C91268137812F5F74
:1024B0003F4F3783268346815781228133814217DC
:1024C000530740F02681378142815381241B350B0D
:1024D00037832683248135812150304035832483FE
:1024E00001C080E06FBF0895FC014FB7F89484816C
:1024F000958168177907E0F486819781860F971F89
:1025000097838683268137818281938128173907B3
:1025100040F08681978122813381821B930B9783C0
:10252000868384819581861B970B9583848302C063
:10253000158214824FBF0895CF93DF93FC01CB0126
:102540004FB7F894C081D181268137816281738130
:10255000820F931F0E943316C80FD91F88814FBF67
:10256000DF91CF9108951F93CF93DF93FC01462F06
:102570001FB7F89424813581828193812817390708
:10258000B8F4C081D18126813781848195816281AF
:102590007381820F931F0E943316C80FD91F48837F
:1025A000848195810196958384831FBF8FEF02C03C
:1025B0001FBF80E0DF91CF911F910895FC014FB7BD
:1025C000F89422813381848195814FBF281B390B78
:1025D000C90108952FB7F894FC01158214822FBF0A
:1025E00008954098982F84FD409A419895FD419A0E
:1025F000429896FD429A439887FD439A459A86E011
:102600008A95F1F7000045980895CF93C82F449814
:102610000E94F1128C2F8295807F0E94F1128FEC24
:1026200090E00197F1F70000C150C33030F48FEF14
:1026300093E20197F1F700C00000CF910895CF9386
:10264000C82F449A0E94F1128C2F8295807F0E949D
:10265000F1128FEC90E00197F1F70000CF9108950F
:102660001F93CF93DF93EC0115E18881882311F04C
:10267000219601C080E20E941F131150B1F7DF9133
:10268000CF911F910895389A399A3A9A3B9A3C9A79
:102690003D9A459844988FEF97EDA0E08150904087
:1026A000A040E1F700C0000080E30E94F112AFEF0C
:1026B000B9E51197F1F700C0000080E30E94F11224
:1026C00083EB92E00197F1F780E30E94F112A3EB14
:1026D000B2E01197F1F780E20E94F11283EB92E0F1
:1026E0000197F1F788E20E94051388E00E94051324
:1026F00081E00E94051386E00E9405138CE00E9491
:102700000513089580FD605C862F80580E94051394
:102710000895CF93DF93CDB7DEB7C054D0400FB646
:10272000F894DEBF0FBECDBF2DE088E190E00FB67C
:10273000F894A895809360000FBE209360000E94DB
:10274000A1060E9465060E9424060E9416060E94A9
:10275000EB0F80E040E052EC61E070E00E94900FEF
:1027600081E040E855E260E070E00E94900F80E078
:102770006AEB7BE00E94850F81E064EE7EE00E94C0
:10278000850F0E94431380E060E00E948213CE0117
:1027900001966CE770E00E941318CE0101960E942A
:1027A000301381E060E00E948213CE0101966BE855
:1027B00070E00E941318CE0101960E9430137894A5
:1027C0008091D90281FF2BC08091D9028D7F8093A7
:1027D000D9028091E9029091EA02A091EB02B091B6
:1027E000EC020197A109B1098093E9029093EA02F2
:1027F000A093EB02B093EC028091E5029091E60287
:10280000A091E702B091E8020197A109B109809374
:10281000E5029093E602A093E702B093E80280E01D
:1028200062E071E00E94CD1080E06AE970E00E94F1
:10283000021180E062E071E00E94CD1089E491E035
:10284000FC0165907490FC01389745905490FC0110
:10285000349685909490FC013497A590B490FC0137
:102860007897C590D490FC01FC97E590F4908C018A
:1028700008531040A8958091D90281FF32C0809101
:10288000ED029091EE02009761F580E060EA70E061
:102890000E9402116091E9027091EA028091EB02BC
:1028A0009091EC02AE014F5F5F4F2AE030E00E9452
:1028B000361880E0BE016F5F7F4F0E94CD1080E030
:1028C00062E071E00E94CD108091EF029091F002E1
:1028D0009093EE028093ED028091D9028D7F8093D8
:1028E000D9028091D90280FF16C080E065EA70E0CD
:1028F0000E9402116091E40280E00E94691010922F
:10290000E40280E062E071E00E94CD108091D90283
:102910008E7F8093D9028091D90282FF17C0809167
:10292000D90284FF04C080E069EA70E003C080E05F
:1029300062EB70E00E94021180E062E071E00E94B0
:10294000CD108091D9028B7F8093D9028091D902DA
:1029500085FF17C08091D90287FF04C080E06BEB30
:1029600070E003C080E065EC70E00E94021180E03E
:1029700062E071E00E94CD108091D9028F7D80933A
:10298000D9028091B50280FF17C08091B50281FF06
:1029900004C080E06FEC70E003C080E06AED70E09E
:1029A0000E94021180E062E071E00E94CD108091EF
:1029B000B5028E7F8093B5028091D70280FF17C049
:1029C0008091D70281FF04C080E065EE70E003C013
:1029D00080E06CEE70E00E94021180E062E071E045
:1029E0000E94CD108091D7028E7F8093D702809174
:1029F000B50282FF05C0C30164E972E00E9436019E
:102A00008091B50283FF05C0C20164E972E00E94B3
:102A1000E1018091B50284FF05C0C40164E972E060
:102A20000E9488038091B50285FF05C0C50164E955
:102A300072E00E94B2038091D70282FF05C0C601F6
:102A400066EB72E00E9436018091D70283FF05C0D9
:102A5000C70166EB72E00E94E1018091D70284FF1A
:102A600007C0F8018591949166EB72E00E9488039B
:102A70008091D70285FF08C0EDE2F1E08591949145
:102A800066EB72E00E94B2038091DA0280FF09C017
:102A9000E1E0F1E08591949169EE72E040E00E94FE
:102AA00000048091DA0281FF09C0E9E0F1E085913C
:102AB000949165EE72E041E00E9400048091DA0298
:102AC00082FF09C0E5E0F1E0859194916FEE72E03C
:102AD00042E00E944D048091DA0283FF09C0E9E2DE
:102AE000F1E08591949162EE72E043E00E944D0422
:102AF0008091DA0284FF02C00E94A0048091DA0271
:102B000085FF03C080E00E94D2048091DA0286FF34
:102B100003C081E00E94D204809147049091480450
:102B200022E08D3B920770F08091F303853118F01D
:102B300080E00E94000580914604853118F081E014
:102B40000E9400058091DB0280FF0AC0E9EFF0E0FF
:102B50008591949160E270E040E421E00E940501DB
:102B60008091DB0281FF0AC0EDE1F1E08591949153
:102B700066E270E040E422E00E9405018091DB0201
:102B800082FF0AC0E9E3F1E08591949160E270E090
:102B900040E824E00E9405018091DB0283FF0AC027
:102BA000E1E2F1E08591949166E270E040E828E08E
:102BB0000E9405018091DB0284FF0AC0EDE3F1E091
:102BC0008591949169E270E040E820E10E9405015E
:102BD0008091DB0285FF0AC0E5E2F1E085919491E6
:102BE00069ED72E040E120E20E9405018091DB0284
:102BF00086FF0AC0EDEFF0E08591949169ED72E0F7
:102C000040E820E40E9405018091DA0287FF32CE7D
:102C100028E088E190E00FB6F894A89580936000D2
:102C20000FBE20936000FFCF629FD001739FF00121
:102C3000829FE00DF11D649FE00DF11D929FF00D4C
:102C4000839FF00D749FF00D659FF00D9927729F83
:102C5000B00DE11DF91F639FB00DE11DF91FBD010E
:102C6000CF0111240895AA1BBB1B51E107C0AA1F65
:102C7000BB1FA617B70710F0A61BB70B881F991F1D
:102C80005A95A9F780959095BC01CD01089597FBC1
:102C9000092E07260AD077FD04D0E5DF06D00020F4
:102CA0001AF4709561957F4F0895F6F79095819588
:102CB0009F4F0895A1E21A2EAA1BBB1BFD010DC058
:102CC000AA1FBB1FEE1FFF1FA217B307E407F507DC
:102CD00020F0A21BB30BE40BF50B661F771F881FB8
:102CE000991F1A9469F760957095809590959B014E
:102CF000AC01BD01CF01089597FB092E05260ED02A
:102D000057FD04D0D7DF0AD0001C38F45095409509
:102D1000309521953F4F4F4F5F4F0895F6F79095AF
:102D20008095709561957F4F8F4F9F4F0895A0E0DC
:102D3000B0E0EDE9F6E10C948A184C016901580104
:102D4000EA017B011BC0CE01969587958C9D800181
:102D50008D9D100D9C9D100D11240E0D1F1DC40185
:102D6000B801F5010995009769F01816190624F4C1
:102D70007801EC0CFD1C2197D695C795209719F783
:102D800000E010E0C801CDB7DEB7ECE00C94A61867
:102D9000A4E0B0E0EEECF6E10C9485182B017A018A
:102DA0006115710529F0DB018C9311969C931197A5
:102DB000E114F10439F097012250304023323105FB
:102DC00008F0F9C06C0186010894C11CD11CF801FF
:102DD00030803601832D90E00E940B18009799F700
:102DE000FDE23F1661F4D80111963C90119792E0F4
:102DF000692E712C600E711ECC24C3940BC0BBE2F3
:102E00003B1639F4F801318082E0682E712C600E97
:102E1000711ECC24E114F10421F0F0E1EF16F1046D
:102E2000F9F480E3381691F4D3018C91883711F0CE
:102E3000883561F4F301318082E090E0680E791EFC
:102E400092E0C92AB0E1EB2EF12C0AC0E114F104A2
:102E500039F4A0E33A16D1F0AAE0EA2EF12C2FC003
:102E6000BAE0EB16F10459F1E0E1EE16F10429F0B5
:102E7000F8E0EF16F104B1F409C0FFEF8F2EFFEF79
:102E80009F2EFFEFAF2EFFE0BF2E21C078E0E72E90
:102E9000F12CEFEF8E2EEFEF9E2EEFEFAE2EEFE147
:102EA000BE2E15C09701442737FD4095542F6FEF74
:102EB0007FEFCB010E945A1649015A0108C069E907
:102EC000862E69E9962E69E9A62E69E1B62E40E0C4
:102ED00000E010E09801C701AA2797FDA095BA2F3E
:102EE00089839A83AB83BC8350EDD52ED30C99E0B4
:102EF0009D1570F4832D81548A3118F499ECD92EE4
:102F000006C0832D81568A3168F589EAD82ED30C04
:102F10008D2D90E08E159F052CF54F3FF9F0801612
:102F20009106A206B306B8F0C901B80129813A8119
:102F30004B815C810E9414168B019C018D2D90E0C9
:102F4000A0E0B0E0080F191F2A1F3B1F0817190740
:102F50002A073B0710F44FEF01C041E0D3013D9039
:102F60003D01C2CF4114510489F0442339F0089443
:102F700061087108F2017182608208C0C1FE06C05A
:102F8000C3010297D20111969C938E93C0FE07C095
:102F900030952095109501951F4F2F4F3F4F47FFBC
:102FA0000DC082E290E090937204809371040FEF61
:102FB0001FEF980103C000E010E09801B801C901BB
:102FC0002496E1E10C94A1181F93FC01992788270E
:102FD000BC01E89411911032E9F3193010F01E3061
:102FE000C8F31B3251F01D3249F4689406C00E94A8
:102FF0002118610F711D811D911D119110531A30FF
:10300000B0F33EF490958095709561957F4F8F4F0A
:103010009F4F1F910895911164C0803219F089501B
:103020008550D0F70895FB01DC0105900D9200203A
:10303000E1F70895DC0101C06D9341505040E0F785
:103040000895592F482F372F262F660F771F881F77
:10305000991F660F771F881F991F620F731F841FA8
:10306000951F660F771F881F991F0895FA01CF9348
:10307000FF93EF932230CCF02532BCF4C22F2C2FDB
:10308000332744275527FF93EF930E945A16EF9159
:10309000FF91605D6A330CF0695D6193B901CA010B
:1030A000605070408040904051F710828F919F9106
:1030B000CF910C947418FB019F01423074F045329B
:1030C00064F4642F77270E943316805D8A330CF0F6
:1030D000895D8193CB010097A1F71082C9010C94FF
:1030E0007418992788270895DC01FC01672F7191D6
:1030F0007723E1F7329704C07C916D9370836291DE
:10310000AE17BF07C8F308952F923F924F925F9278
:103110006F927F928F929F92AF92BF92CF92DF92E7
:10312000EF92FF920F931F93CF93DF93CDB7DEB74C
:10313000CA1BDB0B0FB6F894DEBF0FBECDBF0994E0
:103140002A88398848885F846E847D848C849B8437
:10315000AA84B984C884DF80EE80FD800C811B8145
:10316000AA81B981CE0FD11D0FB6F894DEBF0FBE74
:0A317000CDBFED010895F894FFCFE4
:10317A0009000D0A00060608000800202020202069
:10318A003132334134353642373839432A302344D1
:02319A0028010A
:00000001FF
