:100000000C94E6000C9403010C9403010C9403017E
:100010000C9403010C9403010C9403010C94030150
:100020000C9403010C9403010C9403010C94030140
:100030000C9403010C9403010C9403010C94030130
:100040000C9483090C9403010C9403010C94030198
:100050000C94EE110C94A4110C9403010C94030164
:100060000C9403010C9403010C9403010C94030100
:100070000C9413120C94C9110C940301424244399C
:100080003030302076332E332E3400537461727446
:10009000696E672075702E2E2E005265616479009E
:1000A000464C4D09004B5009004D544E2D535452AF
:1000B00054004D544E2D53544F50004452534E2D26
:1000C0004F504E44004452534E2D434C534400561F
:1000D000414C524D2D535452540056414C524D2DCB
:1000E00053544F5000504D502D4F4E00504D502DF9
:1000F0004F4646004D53520900C801E10C5701B765
:100100000CA601510D9F01DB0E97014D0D6F01C62D
:100110000E7401700DC301800CBE017C0CB801DAB5
:100120000CAE01CC0C6301BE0C5C01B80E790176FB
:100130000D6701BF0E51016A0DB301D30C9301C5C8
:100140000C7D01CD0E8F01820D8701D40E82017CC2
:100150000D5245534554004452534E004D544E2DBC
:100160004D53004D544E00504D502D5448520049AF
:1001700043414C004952415700504D5000564341B5
:100180004C00565241570056494E2D544852005685
:10019000494E0053544B00464C4D2D544F5400468D
:1001A0004C4D2D4D5300464C4D2D435552004C4760
:1001B000485400524C5931004C4344424C004C438B
:1001C0004432004C434431004155580011241FBEB5
:1001D000CFEFD8E0DEBFCDBF11E0A0E0B1E0E6E7B1
:1001E000F1E302C005900D92A232B107D9F713E0F6
:1001F000A2E2B1E001C01D92A13EB107E1F70E9469
:1002000087130C94B9180C940000EF92FF921F937F
:10021000CF93DF930F92CDB7DEB7FC017B01122F96
:1002200080E0BF0149830E94001180E069E00E94E4
:100230006710F70180814981842311F061E301C0D7
:1002400060E380E00E94671080E062E071E00E945D
:10025000CB108091490210951823109349020F90FA
:10026000DF91CF911F91FF90EF9008956F927F9251
:100270008F929F92AF92BF92CF92DF92EF92FF92B6
:100280000F931F93CF93DF933C01EB0180915F02AB
:10029000882329F480916602882309F454C08FE5ED
:1002A00092E064E670E00E9499054C0110925F02B2
:1002B00086E692E064E670E00E9499055C01109287
:1002C00066024B895C896D897E890F851889298929
:1002D0003A89C401A0E0B0E0EDE0880F991FAA1FA1
:1002E000BB1FEA95D1F7841B950BA60BB70BBC017E
:1002F000CD01A90198010E947A1669017A014B8902
:100300005C896D897E890F85188929893A89C5019B
:10031000A0E0B0E0FDE0880F991FAA1FBB1FFA956F
:10032000D1F7841B950BA60BB70BBC01CD01A9011E
:1003300098010E947A169E8E8D8EDA8EC98EB8A292
:10034000AF8E3C8F2B8F80E0B3010E94001180E0C4
:1003500069E00E9467108D8D9E8D62E046E852E054
:100360000E94510580E066E872E00E94CB1080E0B8
:1003700060E071E00E94CB108F8D98A162E046E8AA
:1003800052E00E94510580E066E872E00E94CB10C6
:1003900080E062E071E00E94CB101092860289A199
:1003A0008B7F89A3DF91CF911F910F91FF90EF90E9
:1003B000DF90CF90BF90AF909F908F907F906F9085
:1003C00008952F923F924F925F926F927F928F92F9
:1003D0009F92AF92BF92CF92DF92EF92FF920F93D4
:1003E0001F93CF93DF93CDB7DEB72C970FB6F8945A
:1003F000DEBF0FBECDBF9E838D837C876B878091D0
:100400005F02882369F480916602882349F4809111
:100410006D02882329F480917402882309F4F9C0BD
:100420008FE592E00E94E2172B013C0110925F02DF
:1004300086E692E064E670E00E9499051C016C017A
:10044000EE24FF24109266028DE692E00E94E217ED
:1004500069837A838B839C8310926D0284E792E098
:1004600064E670E00E9499058C01AC0160E070E0E8
:100470001092740220E0421620E0520621E062064B
:1004800020E0720648F0AB85BC8517968D919C9153
:1004900018972C016624772489819A81AB81BC81CD
:1004A0008030E0E09E07E1E0AE07E0E0BE0768F0E4
:1004B000AB85BC851B968D919C911C974C01AA2401
:1004C000BB2489829A82AB82BC82DB01CA018C196F
:1004D0009D09AE09BF092DE0880F991FAA1FBB1FF8
:1004E0002A95D1F729813A814B815C8124193509FC
:1004F00046095709BC01CD010E947A1649015A01EB
:100500006DE0CC0CDD1CEE1CFF1C6A95D1F7CA0116
:10051000B901A30192010E941216DC01CB01C81A95
:10052000D90AEA0AFB0AAB85BC855D968D919C9140
:100530005E97A0E0B0E0EDE0880F991FAA1FBB1FF7
:10054000EA95D1F78C199D09AE09BF09BC01CD010F
:10055000A50194010E947A162F83388749875A870C
:10056000EB85FC85878D90A1A0E0B0E06DE0880F61
:10057000991FAA1FBB1F6A95D1F78C199D09AE0957
:10058000BF09BC01CD01A50194010E947A16AB857B
:10059000BC851A963C922E92199718965C924E92B0
:1005A00017971E961C930E931D97E981FA811C964E
:1005B000FC93EE931B971F968D929D92AD92BC92E9
:1005C0005297FD01C38AD48AE58AF68A8F8198857D
:1005D000928F818F348F238F66277727CB016C19F9
:1005E0007D098E099F09A50194010E947A16AB85A9
:1005F000BC8558963C932E93579757968D919C9116
:100600005897B4E080309B0720F0EB85FC85108E76
:10061000178A80E06D817E810E94001180E069E090
:100620000E946710AB85BC8517968D919C91189799
:1006300066E872E04AE050E00E94591880E066E8FF
:1006400072E00E94CB1080E060E071E00E94CB106D
:10065000EB85FC858185928562E046E852E00E9448
:10066000510580E066E872E00E94CB1080E060E017
:1006700071E00E94CB10AB85BC851B968D919C913F
:100680001C9766E872E04AE050E00E94591880E04A
:1006900066E872E00E94CB1080E060E071E00E94AA
:1006A000CB10EB85FC858585968562E046E852E0B7
:1006B0000E94510580E066E872E00E94CB1080E065
:1006C00062E071E00E94CB1010928602AB85BC857F
:1006D00091968C919197877F91968C9391972C9678
:1006E0000FB6F894DEBF0FBECDBFDF91CF911F9143
:1006F0000F91FF90EF90DF90CF90BF90AF909F90C1
:100700008F907F906F905F904F903F902F900895C3
:100710000F931F93CF93DF939C01EB0180E0B9010E
:100720000E94001180E069E00E94671089819A812F
:1007300006E812E0B8014AE050E00E94591880E053
:10074000B8010E94CB1080E062E071E00E94CB1003
:100750001092860289A18F7E89A3DF91CF911F918C
:100760000F910895CF92DF92EF92FF92CF93DF9394
:100770009C01EB0180E0B9010E94001180E069E07A
:100780000E94671029813A818F89988D821793077B
:10079000D0F46F85788989899A8929813A81CB88B3
:1007A000DC88ED88FE8840E050E00E9412166C0D57
:1007B0007D1D8E1D9F1D20E030E240E050E00E9434
:1007C0007A16C90102C080E090E062E046E852E09B
:1007D0000E94510580E066E872E00E94CB1080E044
:1007E00062E071E00E94CB101092860289A18F7D99
:1007F00089A3DF91CF91FF90EF90DF90CF90089584
:10080000FF920F931F93CF93DF938C01EB01F42E94
:1008100080917B02882381F08BE792E060E070E0BA
:100820004AE050E00E94C616DC01CB018883998320
:10083000AA83BB8310927B0280E0B8010E94001162
:1008400080E069E00E946710688179818A819B81DC
:100850004DE852E02AE030E00E94341880E06DE874
:1008600072E00E94CB1010928D0280E062E071E095
:100870000E94CB102091480281E090E002C0880FD6
:10088000991FFA94E2F78095822380934802DF91C2
:10089000CF911F910F91FF900895FF920F931F9397
:1008A000CF93DF938C01EB01F42E80915F028823BC
:1008B000B1F08FE592E00E94E217DC01CB011092CB
:1008C0005F02880F991FAA1FBB1F8F3F2FEF920750
:1008D00020E0A20720E0B20710F49983888380E02B
:1008E000B8010E94001180E069E00E9467108881D1
:1008F00099819695879566E872E04AE050E00E94FB
:10090000591880E066E872E00E94CB1010928602CF
:1009100080E062E071E00E94CB102091480281E00B
:1009200090E002C0880F991FFA94E2F78095822325
:1009300080934802DF91CF911F910F91FF9008950E
:10094000CF93DF9380E064EF70E00E940011C8E96C
:10095000D2E080E0BE010E94CB1080E069E00E94FE
:100960006710CE0160E070E04FE450E00E9418187C
:10097000C7EED2E080E0BE010E94CB1080E062E0D2
:1009800071E00E94CB10CE0160E070E048E250E0E0
:100990000E941818809148028F7E80934802DF9150
:1009A000CF9108950F931F93CF93DF93182F60E09B
:1009B0000E948013412F50E023E530E0429FE00188
:1009C000439FD00D529FD00D1124C15FDC4F04E135
:1009D0008881882311F0899101C080E20E941D1353
:1009E0000150B1F780914802112311F48F7D01C0AD
:1009F0008F7B80934802DF91CF911F910F910895D3
:100A0000CF92DF92EF92FF920F931F93CF93DF93DA
:100A1000482F50E023E530E0429F8001439F100DB6
:100A2000529F100D1124015F1C4F60E00E94801343
:100A3000C0E0D0E0A1E5EA2EF12CE00EF11EB2E517
:100A4000CB2ED12CC00ED11EF7018081F601608122
:100A50009E01280F311DC90170E00E944516800FCC
:100A6000911FFC0180810E941D132196C431D10584
:100A700059F71092B6031092B503F7018081F60181
:100A8000608190E0019670E00E944516F701808336
:100A9000DF91CF911F910F91FF90EF90DF90CF905A
:100AA00008951F93CF93DF93162FEA01613021F44D
:100AB0008A30910518F520C0623039F48A309105EA
:100AC00090F084369105D0F417C06330B9F48A30C1
:100AD000910530F420E3288329832A8323960EC0CE
:100AE0008436910528F420E328832983229606C0C2
:100AF00023E0883E920710F420E32993BE014AE0E8
:100B000050E00E9459188991FE018823E1F7812F56
:100B10008F5F04C0DF019E919083FD0111501E3F45
:100B2000C9F7C81BD1098EE28883DF91CF911F914D
:100B30000895CF92DF92EF92FF920F931F93CF937E
:100B4000DF9300D0CDB7DEB77A836983DC012C91C7
:100B5000322F30533A3010F4FC0104C02E3209F029
:100B600058C0FACF4E2F3F2F2191522F50535A3059
:100B7000C8F32E3209F041C0042F132FF80111924F
:100B80008F010E94E21729813A8140E050E00E94E3
:100B900012166B017C0189819A816AE070E00E94E3
:100BA00031167A836983EAE0F0E01BC049815A81FB
:100BB000992787FD9095C097849F9001859F300D60
:100BC000949F300D1124C901A0E0B0E0C80ED91ED9
:100BD000EA1EFB1E89819A81BF010E9431167A8329
:100BE000698389819A81009791F0D8018D918D0157
:100BF000982F90539A30D0F20AC00E94E2172981B0
:100C00003A8140E050E00E9412166B017C01C6015F
:100C100002C080E090E00F900F90DF91CF911F9184
:100C20000F91FF90EF90DF90CF90089584E287BD01
:100C300084B5826084BD85B5846085BDEEE6F0E054
:100C400080818260808308951092020281E0809307
:100C50002402109223021092450210920402109274
:100C600003021092050210920602109207021092DF
:100C7000080210922602109225021092270210926A
:100C800028021092290210922A02EAE7F0E08081FD
:100C900087608083AEE7B0E08C9183608C93ACE793
:100CA000B0E08C9180648C93808180688083109206
:100CB00046028C91807F8C938081806480838091B8
:100CC0002302826080932302089511B814B817B8E4
:100CD0001AB884B1806F84B985B18F7085B983B13A
:100CE0008F6083B985B18F6085B9109252021092DE
:100CF0005702109258021092590210925A02109202
:100D00005C0210925B0210924A0210924B02109207
:100D10004C0210924D0282B18C6082B98BB18BB9BA
:100D20000E9A069816980F9A079817983E9A369832
:100D300046983F9A37984798579A4F985F980895E2
:100D4000CF92DF92EF92FF920F931F931092530274
:100D500010925402109255021092560288E4809329
:100D6000470288EC90E090935E0280935D0288E0F9
:100D700090E090934F0280934E0280E29EE4909325
:100D800051028093500210920A02109209021092AE
:100D90000C0210920B0286E692E090930E02809372
:100DA0000D0280EB94E09093100280930F028091EB
:100DB0000F029091100220910B0230910C02E091F1
:100DC0000D02F0910E02C0900902D0900A02A0E03C
:100DD000B0E0A90160E070E0841B950BA60BB70B97
:100DE0001DE0880F991FAA1FBB1F1A95D1F79F01FD
:100DF00040E050E0EE24FF242C193D094E095F0924
:100E0000BC01CD010E947A16209311023093120288
:100E10004093130250931402C0900B02D0900C0226
:100E2000609111027091120280911302909114024C
:100E30002091090230910A02EE24FF240DE0CC0C2F
:100E4000DD1CEE1CFF1C0A95D1F740E050E00E942B
:100E50001216DC01CB01C81AD90AEA0AFB0AC092B1
:100E60001502D0921602E0921702F09218028091B9
:100E7000150290911602A0911702B09118022091CC
:100E800011023091120240911302509114027C0120
:100E90008D0166277727CB016E197F09800B910B97
:100EA0000E947A1630931A02209319028091190237
:100EB00090911A0204E08030900720F010921A02FC
:100EC000109219028AE194E09093200280931F020D
:100ED00060911F027091200280911502909116027C
:100EE000A0911702B09118022091110230911202C4
:100EF00040911302509114026B01EE24FF241DE077
:100F0000CC0CDD1CEE1CFF1C1A95D1F7C81AD90AAF
:100F1000EA0AFB0AC701B6010E947A1630931C0246
:100F200020931B028EE794E090932202809321028B
:100F30006091210270912202809115029091160217
:100F4000A0911702B0911802209111023091120263
:100F500040911302509114026B01EE24FF240DE026
:100F6000CC0CDD1CEE1CFF1C0A95D1F7C81AD90A5F
:100F7000EA0AFB0AC701B6010E947A1630931E02E4
:100F800020931D028FE790E090932C0280932B0218
:100F900010922E0210922D0284E393E0909330027F
:100FA00080932F0288E893E190933202809331027C
:100FB000809131029091320220912D0230912E02C7
:100FC000E0912F02F0913002C0902B02D0902C02C1
:100FD000A0E0B0E0A90160E070E0841B950BA60BD7
:100FE000B70B1DE0880F991FAA1FBB1F1A95D1F7D9
:100FF0009F0140E050E0EE24FF242C193D094E09EA
:101000005F09BC01CD010E947A1620933302309310
:1010100034024093350250933602C0902D02D09096
:101020002E026091330270913402809135029091CA
:10103000360220912B0230912C02EE24FF240DE089
:10104000CC0CDD1CEE1CFF1C0A95D1F740E050E0F3
:101050000E941216DC01CB01C81AD90AEA0AFB0A5F
:10106000C0923702D0923802E0923902F0923A02EE
:101070008091370290913802A0913902B0913A02E2
:101080002091330230913402409135025091360262
:101090007C018D0166277727CB016E197F09800BB4
:1010A000910B0E947A1630933C0220933B02809170
:1010B0003B0290913C0204E08030900720F01092B7
:1010C0003C0210923B0286E990E0909342028093AA
:1010D00041026091410270914202809137029091E9
:1010E0003802A0913902B0913A0220913302309136
:1010F000340240913502509136026B01EE24FF24F8
:10110000EDE0CC0CDD1CEE1CFF1CEA95D1F7C81AF3
:10111000D90AEA0AFB0AC701B6010E947A1630937F
:101120003E0220933D028CE390E090934402809332
:101130004302609143027091440280913702909182
:101140003802A0913902B0913A02209133023091D5
:10115000340240913502509136026B01EE24FF2497
:10116000FDE0CC0CDD1CEE1CFF1CFA95D1F7C81A73
:10117000D90AEA0AFB0AC701B6010E947A1630931F
:10118000400220933F021F910F91FF90EF90DF905C
:10119000CF900895823091F0833018F4813039F582
:1011A00005C08330A1F0843011F519C0615064305E
:1011B000F0F4E62FF0E0E05FFE4F07C061506430CE
:1011C000B0F4E62FF0E0EC5EFE4F808108956150B0
:1011D000643068F4E62FF0E0E85EFE4FF6CF615031
:1011E000643038F4E62FF0E0E45EFE4FEECF80E0AE
:1011F000089580E008950F931F9320917800309117
:10120000790080914602882349F4809105029091EB
:101210000602A0910702B09108022CC08091230120
:10122000909124018217930720F430932401209396
:101230002301809125018F5F80932501823170F019
:10124000809123019091240190932701809326019E
:101250001092240110922301109225012091260161
:10126000309127018091270290912802A0912902B4
:10127000B0912A02492F5A2F6B2F7727890120E03E
:1012800030E0080F191F2A1F3B1F041B150B260BEC
:10129000370B809146027727632F522F412F8823E7
:1012A000B1F40093050210930602209307023093D5
:1012B0000802509304024093030280917C00807FD7
:1012C000816080937C0081E08093460213C000938C
:1012D0002702109328022093290230932A02509368
:1012E00026024093250280917C00807F80937C00C1
:1012F0001092460280917A00806480937A00CA013D
:101300001F910F9108951F920F920FB60F92112403
:101310000F931F932F933F934F935F936F937F93FD
:101320008F939F93AF93BF93CF93EF93FF93C0910E
:1013300046020E94FB08CC2351F520911B023091FC
:101340001C028217930768F48091230281FD05C077
:101350008091230281608093230280912302826026
:1013600013C020911D0230911E0228173907C0F5C5
:101370008091230281FF05C08091230281608093C8
:101380002302809123028D7F8093230229C0209124
:101390003D0230913E022817390768F480914502DA
:1013A00081FD05C080914502816080934502809156
:1013B0004502826013C020913F02309140028217A3
:1013C000930770F48091450281FF05C0809145022A
:1013D000816080934502809145028D7F8093450214
:1013E00082B18C6082B9159885B18F6085B985B15D
:1013F0008F7085B98BB18BB98BB18BB921E04C9BC8
:1014000020E04D992260059B04C08091470283FD36
:1014100005C0059904C08091470283FF24604E9B5C
:1014200004C08091470286FD05C04E9904C080919A
:10143000470286FF2068189B2860199B20611A9B31
:1014400020621B9B2064409122014227342F40FDE3
:1014500002C086E005C080910501882329F08150F3
:1014600080930501C0E001C0C1E031FD02C086E00B
:1014700005C080910601882321F0815080930601E8
:1014800001C0C26032FD05C0809107019091080142
:1014900007C08091090190910A01009731F00197EE
:1014A00090930A018093090101C0C46047FD02C006
:1014B00080E205C080910B01882321F08150809348
:1014C0000B0101C0C06833FD02C080E205C08091FD
:1014D0000C01882329F0815080930C0180E002C028
:1014E000C86081E034FD02C090E205C090910D011A
:1014F000992321F0915090930D0102C0C06182E0C8
:1015000035FD02C090E205C090910E01992321F0B3
:10151000915090930E0102C0C06283E036FD02C07C
:1015200090E205C090910F01992321F09150909382
:101530000F0102C0C06484E09C2F9095309122017D
:1015400093232C23922B9093220120915B023091C4
:101550005C022115310551F020915B0230915C0253
:101560002150304030935C0220935B020C2F10E03E
:101570009801237030702115310569F120914702DF
:10158000226020934702409153025091540260918F
:101590005502709156024F5F5F4F6F4F7F4F4093E0
:1015A0005302509354026093550270935602409137
:1015B0005702509158026091590270915A024F5F40
:1015C0005F4F6F4F7F4F4093570250935802609385
:1015D000590270935A02980128773070211531050D
:1015E00009F455C02091470220FD51C0987709F4B5
:1015F0004EC023B12C9A91E0392F3A95F1F743B1BF
:1016000050E04F7050702F7030E02C984217530705
:1016100009F090C02D9A9A95F1F743B150E04F70C0
:1016200050704217530711F460E001C062E02D983A
:101630006623E1F42E9A91E09A95F1F743B150E0D8
:101640004F7050704217530709F063E02E986623DD
:1016500069F42F9A91E09A95F1F743B150E04F70F9
:1016600050704217530709F064E02F98882379F0EF
:10167000662369F00E94CA08809352028091520248
:10168000882329F08091470281608093470202FFFE
:1016900020C080914702846080934702809122019C
:1016A00082FF0AC080914702806180934702809147
:1016B00050029091510209C0809147028F7E809321
:1016C000470280914E0290914F02909308018093BF
:1016D0000701C7FF12C080914702806280934702D2
:1016E0008091220187FF04C080914702806803C077
:1016F000809147028F77809347028091B503909144
:10170000B60301969093B6038093B503FF91EF91D2
:10171000CF91BF91AF919F918F917F916F915F9189
:101720004F913F912F911F910F910F900FBE0F90EE
:101730001F90189561E09ACFFB0125913491F90132
:101740004491DC0102C0F90144918D91882331F06C
:10175000442321F02F5F3F4F8417A9F3992787FD7A
:101760009095242F332727FD3095821B930B0895E6
:10177000FF920F931F93CF93DF93F82EE0912001F8
:10178000F09121018DE0F81631F08AE0F81619F099
:1017900089E0F81661F5108288E291E069EF70E067
:1017A00046E150E024E030E00CE91BE00E94951691
:1017B000EC01009799F0FC013296859194918C018F
:1017C00080E0B8010E94830FFE018591949180937F
:1017D000B7039093B8038F2DF801099588E291E043
:1017E00090932101809320011092280112C081E082
:1017F000EF32F80740F4DF01FD92B0932101A0938E
:101800002001118206C088E291E09093210180932B
:101810002001DF91CF911F910F91FF9008958D309E
:1018200011F08A30A1F540913201442339F0E09162
:101830003001F0913101E40FF11D108280914802D6
:10184000662311F4806201C080648093480270E0D6
:1018500023E530E0629FC001639F900D729F900D61
:1018600011248E5F9D4FFC01E15AFE4F4083825A46
:101870009E4FFC01108210923201109231011092A1
:10188000300180E068EB7BE00E94830F089589308F
:1018900001F570E023E530E0629FC001639F900D89
:1018A000729F900D11249C012E5F3D4FF901E15A6A
:1018B000FE4F1082225A3E4FF9011082815F9C4FE9
:1018C0009093310180933001FC011082109232011B
:1018D000089520913001309131012115310559F0E1
:1018E00090913201903538F4290F311DF901808330
:1018F0009F5F90933201089561E00E940F0C08955C
:1019000060E00E940F0C0895FB018D3011F08A30C9
:10191000C1F480913301882361F43091490281E060
:1019200090E002C0880F991F2A95E2F7382B309378
:1019300049021092330180E068EB7BE00E94830F44
:101940000895893099F090913301992379F4813386
:1019500021F48081842B808306C0803321F4808130
:1019600040954823408381E080933301089567E4E4
:1019700072E040E426E00E94840C089567E472E07F
:1019800048E025E00E94840C08956BE270E040E896
:1019900024E00E94840C089568E270E040E823E0AF
:1019A0000E94840C089562E270E040E822E00E9408
:1019B000840C089568E270E040E421E00E94840C09
:1019C000089562E270E040E420E00E94840C0895F3
:1019D0008D3011F08A3019F580913401882339F067
:1019E000E0913501F0913601E80FF11D1082209150
:1019F000480281E090E002C0880F991F6A95E2F7E3
:101A0000282B209348021092340110923601109234
:101A1000350180E068EB7BE00E94830F08958930F8
:101A200011F58BE792E09093360180933501809118
:101A30007B02882389F11092360110923501809142
:101A40004A0290914B02A0914C02B0914D02019636
:101A5000A11DB11D80934A0290934B02A0934C02AA
:101A6000B0934D02089540913501509136014115D2
:101A7000510591F0909134019A3070F4282F30E0A4
:101A8000205330402A30310538F4490F511DFA01F6
:101A900080839F5F90933401089561E00E94E80C79
:101AA000089560E00E94E80C0895FB018D3011F06C
:101AB0008A3079F4208181E090E002C0880F991F7C
:101AC0004A95E2F7282B208380E068EB7BE00E94B8
:101AD000830F089568E472E047E00E94550D089571
:101AE00065E472E044E00E94550D089565E472E0FB
:101AF00045E00E94550D089563E272E044E00E94C3
:101B0000550D089563E272E045E00E94550D089579
:101B1000FB018D3019F08A3009F042C0A0913701E5
:101B2000AA2321F0B0E0A15ABD4F1C92A091380128
:101B3000AA2321F0B0E0AA59BD4F1C92A09139010F
:101B4000AA2321F0B0E0A359BD4F1C92A0913A0105
:101B5000AA2321F0B0E0AC58BD4F1C92208181E057
:101B600090E002C0880F991F4A95E2F7282B208346
:101B700010923A01109239011092380110923701F7
:101B800010923C0110923B0110923E0110923D01D7
:101B900010923F0180E068EB7BE00E94830F089584
:101BA000893009F0C8C090913F01921708F0C3C076
:101BB000992371F580915F028823E1F010923E0134
:101BC00010923D0110923C0110923B0180914A021B
:101BD00090914B02A0914C02B0914D020196A11D33
:101BE000B11D80934A0290934B02A0934C02B09394
:101BF0004D020CC08FE592E090933C0180933B0135
:101C000087E391E090933E0180933D0181E090C095
:101C1000913071F5809166028823E1F010923E01C7
:101C200010923D0110923C0110923B0180914A02BA
:101C300090914B02A0914C02B0914D020196A11DD2
:101C4000B11D80934A0290934B02A0934C02B09333
:101C50004D020CC086E692E090933C0180933B01DC
:101C600088E391E090933E0180933D0182E060C063
:101C7000923071F580916D028823E1F010923E015F
:101C800010923D0110923C0110923B0180914A025A
:101C900090914B02A0914C02B0914D020196A11D72
:101CA000B11D80934A0290934B02A0934C02B093D3
:101CB0004D020CC08DE692E090933C0180933B0175
:101CC00089E391E090933E0180933D0183E030C031
:101CD000933009F04CC0809174028823E1F0109297
:101CE0003E0110923D0110923C0110923B01809107
:101CF0004A0290914B02A0914C02B0914D02019684
:101D0000A11DB11D80934A0290934B02A0934C02F7
:101D1000B0934D020CC084E792E090933C01809315
:101D20003B018AE391E090933E0180933D0184E082
:101D300080933F010895E0913D01F0913E0130977D
:101D4000B1F09081963098F4282F30E02053304045
:101D50002A30310510F08E3251F4A0913B01B09140
:101D60003C01A90FB11D8C9380818F5F8083089502
:101D700068E472E043E021E00E94880D089565E484
:101D800072E042E022E00E94880D089565E472E06E
:101D900043E024E00E94880D089563E272E043E08E
:101DA00024E00E94880D089563E272E042E022E0A0
:101DB0000E94880D089568E472E042E021E00E94EC
:101DC000880D0895853289F490914001992309F096
:101DD00068C081E08093400188E992E090934201DD
:101DE000809341018091980212C08B3359F59091F4
:101DF0004001992309F055C082E08093400187EEAD
:101E000092E090934201809341018091E702882300
:101E100009F456C0109242011092410180914A0289
:101E200090914B02A0914C02B0914D020196A11DE0
:101E3000B11D80934A0290934B02A0934C02B09341
:101E40004D0208958F3349F520914001222349F135
:101E500081E090E002C0880F991F2A95E2F79091E7
:101E60004301982B90934301E0914101F09142018D
:101E70001192F0934201E0934101963039F41092AF
:101E80004301809148028061809348021092400192
:101E9000109242011092410108958D3089F08A30EC
:101EA00079F090914001992359F0E0914101F0912E
:101EB0004201309729F08193F0934201E093410170
:101EC000089589EB93E068E471E040E250E00E94FD
:101ED00038128BEC93E068E671E040E850E00E9435
:101EE0003812089581EC93E068EE71E046E150E02D
:101EF0000E94381283ED93E06EEF71E044E050E011
:101F00000E9438120895823040F4E82FF0E0EE0F7E
:101F1000FF1FEC5BFE4F718360830895CF93C82F42
:101F2000DB01CA018050984DAC4DBF4F23E0880FB4
:101F3000991FAA1FBB1F2A95D1F79A01AB01E4E0B4
:101F4000220F331F441F551FEA95D1F7BC01CD0165
:101F50000E94581621503040CC2329F02093CC0009
:101F60003093CD0004C02093C4003093C500CF91BE
:101F700008950E94720F109247011092460188E95D
:101F80008093C90081E040E855E260E070E00E9483
:101F90008E0F1092CA031092DE031092DD03789424
:101FA00008950E94610F109245011092440188E942
:101FB0008093C10080E040E052EC61E070E00E945C
:101FC0008E0F1092C9031092DC031092DB037894F9
:101FD00008950E94D10F0E94B90F089590E0F3E098
:101FE000880F991FFA95E1F787549C4F089590E068
:101FF000A3E0880F991FAA95E1F785539C4F089598
:10200000CF93DF93EB0190E0B3E0880F991FBA956F
:10201000E1F787549C4FFC01228133812115310562
:1020200051F0248135812115310529F00E94451296
:1020300088838FEF01C080E0DF91CF910895CF9327
:10204000DF930F92CDB7DEB781E0BE016F5F7F4FA8
:102050000E940010882319F0898190E002C08FEF60
:102060009FEF0F90DF91CF910895CF93DF930F9261
:10207000CDB7DEB780E0BE016F5F7F4F0E940010DA
:10208000882319F0898190E002C08FEF9FEF0F90B5
:10209000DF91CF91089590E023E0880F991F2A9552
:1020A000E1F787549C4F0E94E8120895E82FF0E072
:1020B00033E0EE0FFF1F3A95E1F7E754FC4F248120
:1020C000358181E02115310509F080E00895CF9335
:1020D000C82F282F30E043E0220F331F4A95E1F745
:1020E000C90185539C4F0E94B112CC2331F08091DD
:1020F000C90080628093C90005C08091C1008062E0
:102100008093C100CF910895682F80E00E946710EE
:102110000895682F81E00E9467100895AF92BF92E2
:10212000CF92DF92EF92FF920F931F93CF93C82F1E
:102130007B018A0190E0E3E0880F991FEA95E1F7BF
:1021400085539C4FF4E0AF2EB12CA80EB91EA2E02F
:10215000CA2ED12CC80ED91E11C0F50180819181E3
:10216000F6012081318182179307B8F7F701619159
:102170007F018C2F0E94671001501040011511053E
:1021800061F7CF911F910F91FF90EF90DF90CF906B
:10219000BF90AF900895CF92DF92EF92FF920F938E
:1021A0001F93CF93C82F8B0190E0B3E0880F991F46
:1021B000BA95E1F785539C4F24E0C22ED12CC80E6E
:1021C000D91E32E0E32EF12CE80EF91E0CC0F60108
:1021D00080819181F7012081318182179307B8F7BF
:1021E0008C2F0E946710F80161918F01662379F7A7
:1021F000CF911F910F91FF90EF90DF90CF900895B6
:10220000CF92DF92EF92FF920F931F93CF93C82F3D
:10221000FB018B010F5F1F4F649190E043E0880F3B
:10222000991F4A95E1F785539C4F54E0C52ED12C58
:10223000C80ED91EA2E0EA2EF12CE80EF91E10C03D
:10224000F60180819181F701208131818217930706
:10225000B8F78C2F0E946710F8010F5F1F4F649131
:10226000662371F7CF911F910F91FF90EF90DF9050
:10227000CF900895E82FF0E0E753FC4F8081089558
:10228000E82FF0E0DF01A753BC4F9FEF9C9393E052
:10229000EE0FFF1F9A95E1F7E553FC4F248135813E
:1022A0002115310581F0882339F083ED93E00E94F8
:1022B00045128093CE0008958BEC93E00E94451266
:1022C0008093C60008951C92882331F08091C90044
:1022D0008F7D8093C90008958091C1008F7D809388
:1022E000C1000895CF93DF93882319F06091CE0049
:1022F00002C06091C600282F30E0E901CC0FDD1F3D
:10230000FE01EC5BFE4F408151814115510531F0DA
:102310000190F081E02D862F099513C043E0220F34
:10232000331F4A95E1F7C90187549C4F0E94B112AF
:10233000882339F4C552DC4F8881998101969983AD
:102340008883DF91CF9108951F920F920FB60F925D
:1023500011242F933F934F935F936F937F938F93AA
:102360009F93AF93BF93EF93FF9380E00E94401140
:10237000FF91EF91BF91AF919F918F917F916F915D
:102380005F914F913F912F910F900FBE0F901F9033
:1023900018951F920F920FB60F9211242F933F930F
:1023A0004F935F936F937F938F939F93AF93BF935D
:1023B000EF93FF9381E00E944011FF91EF91BF9155
:1023C000AF919F918F917F916F915F914F913F91CD
:1023D0002F910F900FBE0F901F9018951F920F9284
:1023E0000FB60F9211242F933F934F935F936F93E8
:1023F0007F938F939F93AF93BF93EF93FF9380E06F
:102400000E947211FF91EF91BF91AF919F918F91B7
:102410007F916F915F914F913F912F910F900FBEE0
:102420000F901F9018951F920F920FB60F921124C4
:102430002F933F934F935F936F937F938F939F93CC
:10244000AF93BF93EF93FF9381E00E947211FF91CE
:10245000EF91BF91AF919F918F917F916F915F911C
:102460004F913F912F910F900FBE0F901F90189595
:10247000FC018FB7F8947183608353834283178282
:102480001682158214828FBF0895FC016FB7F894ED
:1024900084819581009719F1A081B181868197810E
:1024A000A80FB91F8C91268137812F5F3F4F37834B
:1024B000268346815781228133814217530740F09A
:1024C0002681378142815381241B350B3783268334
:1024D00024813581215030403583248301C080E040
:1024E0006FBF0895FC014FB7F894848195816817F8
:1024F0007907E0F486819781860F971F97838683FB
:1025000026813781828193812817390740F086819F
:10251000978122813381821B930B978386838481E9
:102520009581861B970B9583848302C01582148244
:102530004FBF0895CF93DF93FC01CB014FB7F894C1
:10254000C081D1812681378162817381820F931F7F
:102550000E943116C80FD91F88814FBFDF91CF91DC
:1025600008951F93CF93DF93FC01462F1FB7F89474
:10257000248135818281938128173907B8F4C0817D
:10258000D181268137818481958162817381820F17
:10259000931F0E943116C80FD91F488384819581EB
:1025A0000196958384831FBF8FEF02C01FBF80E019
:1025B000DF91CF911F910895FC014FB7F8942281CC
:1025C0003381848195814FBF281B390BC901089540
:1025D0002FB7F894FC01158214822FBF08954098FC
:1025E000982F84FD409A419895FD419A429896FD16
:1025F000429A439887FD439A459A86E08A95F1F777
:10260000000045980895CF93C82F44980E94EF1278
:102610008C2F8295807F0E94EF128FEC90E00197C3
:10262000F1F70000C150C33030F48FEF93E201970F
:10263000F1F700C00000CF910895CF93C82F449ABE
:102640000E94EF128C2F8295807F0E94EF128FECF8
:1026500090E00197F1F70000CF9108951F93CF9379
:10266000DF93EC0115E18881882311F0219601C0E8
:1026700080E20E941D131150B1F7DF91CF911F919D
:102680000895389A399A3A9A3B9A3C9A3D9A4598D5
:1026900044988FEF97EDA0E081509040A040E1F783
:1026A00000C0000080E30E94EF12AFEFB9E5119780
:1026B000F1F700C0000080E30E94EF1283EB92E08C
:1026C0000197F1F780E30E94EF12A3EBB2E01197BC
:1026D000F1F780E20E94EF1283EB92E00197F1F7AD
:1026E00088E20E94031388E00E94031381E00E94A5
:1026F000031386E00E9403138CE00E9403130895E5
:1027000080FD605C862F80580E9403130895CF934C
:10271000DF93CDB7DEB7C054D0400FB6F894DEBF1C
:102720000FBECDBF2DE088E190E00FB6F894A895DC
:10273000809360000FBE209360000E94A0060E945C
:1027400065060E9424060E9416060E94E90F80E09A
:1027500040E052EC61E070E00E948E0F81E040E8C2
:1027600055E260E070E00E948E0F80E068EB7BE055
:102770000E94830F81E062EE7EE00E94830F0E9440
:10278000411380E060E00E948013CE0101966CE767
:1027900070E00E941118CE0101960E942E1381E074
:1027A00060E00E948013CE0101966BE870E00E9409
:1027B0001118CE0101960E942E1378948091470241
:1027C00081FF2BC0809147028D7F809347028091CB
:1027D000570290915802A0915902B0915A02019764
:1027E000A109B1098093570290935802A09359020E
:1027F000B0935A028091530290915402A0915502D5
:10280000B09156020197A109B109809353029093A8
:102810005402A0935502B093560280E062E071E04A
:102820000E94CB1080E06AE970E00E94001180E015
:1028300062E071E00E94CB1089E491E0FC016590B8
:102840007490FC01389745905490FC013496859023
:102850009490FC013497A590B490FC017897C590B2
:10286000D490FC01FC97E590F4908C010853104043
:10287000A8958091470281FF32C080915B029091C0
:102880005C02009761F580E060EA70E00E94001150
:1028900060915702709158028091590290915A02AA
:1028A000AE014F5F5F4F2AE030E00E94341880E0B5
:1028B000BE016F5F7F4F0E94CB1080E062E071E04D
:1028C0000E94CB1080915D0290915E0290935C0219
:1028D00080935B02809147028D7F809347028091B5
:1028E000470280FF16C080E065EA70E00E94001198
:1028F0006091520280E00E9467101092520280E0C4
:1029000062E071E00E94CB10809147028E7F80933D
:1029100047028091470282FF17C08091470284FFDF
:1029200004C080E069EA70E003C080E062EB70E020
:102930000E94001180E062E071E00E94CB10809163
:1029400047028B7F809347028091470285FF17C023
:102950008091470287FF04C080E06BEB70E003C00A
:1029600080E065EC70E00E94001180E062E071E0C0
:102970000E94CB10809147028F7D80934702809107
:10298000230280FF17C08091230281FF04C080E0F2
:102990006FEC70E003C080E06AED70E00E9400110F
:1029A00080E062E071E00E94CB10809123028E7F74
:1029B000809323028091450280FF17C080914502D9
:1029C00081FF04C080E065EE70E003C080E06CEE43
:1029D00070E00E94001180E062E071E00E94CB1084
:1029E000809145028E7F809345028091230282FF71
:1029F00005C0C30162E072E00E94360180912302AB
:102A000083FF05C0C20162E072E00E94E101809193
:102A1000230284FF05C0C40162E072E00E948803C3
:102A20008091230285FF05C0C50162E072E00E942B
:102A3000B2038091450282FF05C0C60164E272E0E4
:102A40000E9436018091450283FF05C0C70164E200
:102A500072E00E94E1018091450284FF07C0F80105
:102A60008591949164E272E00E948803809145020E
:102A700085FF08C0EDE2F1E08591949164E272E097
:102A80000E94B2038091480280FF09C0E1E0F1E0BA
:102A90008591949167E572E040E00E940004809186
:102AA000480281FF09C0E9E0F1E08591949163E576
:102AB00072E041E00E9400048091480282FF09C058
:102AC000E5E0F1E0859194916DE572E042E00E94CD
:102AD0004D048091480283FF09C0E9E2F1E085914D
:102AE000949160E572E043E00E944D0480914802B9
:102AF00084FF02C00E94A0048091480285FF03C0A9
:102B000080E00E94D2048091480286FF03C081E0E9
:102B10000E94D2048091B5039091B60322E08D3BD0
:102B2000920770F080916103853118F080E00E9477
:102B300000058091B403853118F081E00E94000502
:102B40008091490280FF0AC0E9EFF0E085919491FD
:102B500060E270E040E421E00E94050180914902BA
:102B600081FF0AC0EDE1F1E08591949166E270E0A9
:102B700040E422E00E9405018091490282FF0AC0E0
:102B8000E9E3F1E08591949160E270E040E824E0AF
:102B90000E9405018091490283FF0AC0E1E2F1E051
:102BA0008591949166E270E040E828E00E9405017A
:102BB0008091490284FF0AC0EDE3F1E08591949190
:102BC00069E270E040E820E10E940501809149023D
:102BD00085FF0AC0E5E2F1E08591949167E472E037
:102BE00040E120E20E9405018091490286FF0AC06F
:102BF000EDEFF0E08591949167E472E040E820E425
:102C00000E9405018091480287FF32CE28E088E1CA
:102C100090E00FB6F894A895809360000FBE2093C3
:102C20006000FFCF629FD001739FF001829FE00D93
:102C3000F11D649FE00DF11D929FF00D839FF00D3B
:102C4000749FF00D659FF00D9927729FB00DE11DE7
:102C5000F91F639FB00DE11DF91FBD01CF011124C4
:102C60000895AA1BBB1B51E107C0AA1FBB1FA617D3
:102C7000B70710F0A61BB70B881F991F5A95A9F725
:102C800080959095BC01CD01089597FB092E0726EC
:102C90000AD077FD04D0E5DF06D000201AF4709545
:102CA00061957F4F0895F6F7909581959F4F089510
:102CB000A1E21A2EAA1BBB1BFD010DC0AA1FBB1F40
:102CC000EE1FFF1FA217B307E407F50720F0A21BB2
:102CD000B30BE40BF50B661F771F881F991F1A941F
:102CE00069F760957095809590959B01AC01BD0149
:102CF000CF01089597FB092E05260ED057FD04D06D
:102D0000D7DF0AD0001C38F45095409530952195B6
:102D10003F4F4F4F5F4F0895F6F790958095709510
:102D200061957F4F8F4F9F4F0895A0E0B0E0EBE992
:102D3000F6E10C9488184C0169015801EA017B0105
:102D40001BC0CE01969587958C9D80018D9D100DA1
:102D50009C9D100D11240E0D1F1DC401B801F5011D
:102D60000995009769F01816190624F47801EC0CFF
:102D7000FD1C2197D695C795209719F700E010E024
:102D8000C801CDB7DEB7ECE00C94A418A4E0B0E025
:102D9000ECECF6E10C9483182B017A0161157105B6
:102DA00029F0DB018C9311969C931197E114F104A7
:102DB00039F09701225030402332310508F0F9C034
:102DC0006C0186010894C11CD11CF80130803601C9
:102DD000832D90E00E940918009799F7FDE23F16B5
:102DE00061F4D80111963C90119792E0692E712CF4
:102DF000600E711ECC24C3940BC0BBE23B1639F4A9
:102E0000F801318082E0682E712C600E711ECC2496
:102E1000E114F10421F0F0E1EF16F104F9F480E39C
:102E2000381691F4D3018C91883711F0883561F40C
:102E3000F301318082E090E0680E791E92E0C92AA9
:102E4000B0E1EB2EF12C0AC0E114F10439F4A0E357
:102E50003A16D1F0AAE0EA2EF12C2FC0BAE0EB1618
:102E6000F10459F1E0E1EE16F10429F0F8E0EF1673
:102E7000F104B1F409C0FFEF8F2EFFEF9F2EFFEF9B
:102E8000AF2EFFE0BF2E21C078E0E72EF12CEFEF50
:102E90008E2EEFEF9E2EEFEFAE2EEFE1BE2E15C081
:102EA0009701442737FD4095542F6FEF7FEFCB01FB
:102EB0000E94581649015A0108C069E9862E69E93D
:102EC000962E69E9A62E69E1B62E40E000E010E0FA
:102ED0009801C701AA2797FDA095BA2F89839A83E5
:102EE000AB83BC8350EDD52ED30C99E09D1570F4C7
:102EF000832D81548A3118F499ECD92E06C0832D84
:102F000081568A3168F589EAD82ED30C8D2D90E050
:102F10008E159F052CF54F3FF9F080169106A206FD
:102F2000B306B8F0C901B80129813A814B815C81AF
:102F30000E9412168B019C018D2D90E0A0E0B0E064
:102F4000080F191F2A1F3B1F081719072A073B07DD
:102F500010F44FEF01C041E0D3013D903D01C2CFDD
:102F60004114510489F0442339F008946108710830
:102F7000F2017182608208C0C1FE06C0C3010297DF
:102F8000D20111969C938E93C0FE07C03095209578
:102F9000109501951F4F2F4F3F4F47FF0DC082E205
:102FA00090E09093E0038093DF030FEF1FEF980111
:102FB00003C000E010E09801B801C9012496E1E1E6
:102FC0000C949F181F93FC0199278827BC01E89453
:102FD00011911032E9F3193010F01E30C8F31B3292
:102FE00051F01D3249F4689406C00E941F18610F09
:102FF000711D811D911D119110531A30B0F33EF4D3
:1030000090958095709561957F4F8F4F9F4F1F9141
:103010000895911164C0803219F089508550D0F71D
:103020000895FB01DC0105900D920020E1F7089561
:10303000DC0101C06D9341505040E0F70895592FD5
:10304000482F372F262F660F771F881F991F660F6F
:10305000771F881F991F620F731F841F951F660FAC
:10306000771F881F991F0895FA01CF93FF93EF935D
:103070002230CCF02532BCF4C22F2C2F332744272A
:103080005527FF93EF930E945816EF91FF91605DD3
:103090006A330CF0695D6193B901CA0160507040F8
:1030A0008040904051F710828F919F91CF910C9466
:1030B0007218FB019F01423074F0453264F4642FB2
:1030C00077270E943116805D8A330CF0895D8193E9
:1030D000CB010097A1F71082C9010C9472189927AF
:1030E00088270895DC01FC01672F71917723E1F7B0
:1030F000329704C07C916D9370836291AE17BF07C5
:10310000C8F308952F923F924F925F926F927F92F1
:103110008F929F92AF92BF92CF92DF92EF92FF92E7
:103120000F931F93CF93DF93CDB7DEB7CA1BDB0B93
:103130000FB6F894DEBF0FBECDBF09942A88398838
:1031400048885F846E847D848C849B84AA84B9843F
:10315000C884DF80EE80FD800C811B81AA81B9814B
:10316000CE0FD11D0FB6F894DEBF0FBECDBFED015F
:063170000895F894FFCF62
:1031760009000D0A0006060800080020202020206D
:103186003132334134353642373839432A302344D5
:0231960028010E
:00000001FF
