:100000000C94E6000C9403010C9403010C9403017E
:100010000C9403010C9403010C9403010C94030150
:100020000C9403010C9403010C9403010C94030140
:100030000C9403010C9403010C9403010C94030130
:100040000C947A0E0C9403010C9403010C9403019C
:100050000C94E6160C949C160C9403010C9403016A
:100060000C9403010C9403010C9403010C94030100
:100070000C940B170C94C1160C9403014D535209A8
:1000800000424244393030302076332E322E320056
:100090005374617274696E672075702E2E2E005233
:1000A0006561647900464C4D09004B5009004D5480
:1000B0004E2D53545254004D544E2D53544F500016
:1000C0004452534E2D4F504E44004452534E2D43F4
:1000D0004C53440056414C524D2D535452540056EB
:1000E000414C524D2D53544F5000504D502D4F4EBA
:1000F00000504D502D4F464600C801501157011C6D
:1001000012A60100149F0189139701FC136F01745B
:100110001374010F12C301C411BE01C811B801CC80
:1001200011AE01DA11630115125C01661379010940
:100130001267016D1351012312B301D3119301E131
:10014000117D017B138F01FD118701821382010351
:10015000125245534554004452534E004D544E2DB7
:100160004D53004D544E00504D502D5448520049AF
:1001700043414C004952415700504D5000564341B5
:100180004C00565241570056494E2D544852005685
:10019000494E0053544B00464C4D2D544F5400468D
:1001A0004C4D2D4D5300464C4D2D435552004C4760
:1001B000485400524C5931004C4344424C004C438B
:1001C0004432004C434431004155580011241FBEB5
:1001D000CFEFD4E0DEBFCDBF11E0A0E0B1E0ECE8AE
:1001E000F6E302C005900D92AC31B107D9F714E0E7
:1001F000ACE1B1E001C01D92A934B107E1F70E9462
:100200000D060C94451B0C940000FF920F931F9356
:10021000CF938B01F42EC22FBC0180E00E941216F6
:1002200069E080E00E94A015F80180818F2111F023
:1002300061E301C060E380E00E94A01562E071E02C
:1002400080E00E94EE15C0958091B1028C238093CE
:10025000B102CF911F910F91FF900895CF92DF923D
:10026000EF92FF920F931F93CF93DF938B01BC010B
:1002700080E00E94121669E080E00E94A015F8015B
:10028000218132818789908D8217930770F5818152
:1002900092819C014427552787859089A189B2893D
:1002A000BC01CD010E948E186B017C01F80183898D
:1002B0009489A589B689C80ED91EEA1EFB1EF7FED1
:1002C00008C08FEF9FE1A0E0B0E0C80ED91EEA1E83
:1002D000FB1E8DE0F594E794D794C7948A95D1F7E7
:1002E0004EEE52E062E0C60105C04EEE52E062E022
:1002F00080E090E00E948B086EEE72E080E00E9449
:10030000EE1562E071E080E00E94EE151092EE02C0
:10031000F80181A18F7D81A3DF91CF911F910F9172
:10032000FF90EF90DF90CF9008954F925F926F9281
:100330007F928F929F92AF92BF92CF92DF92EF9275
:10034000FF920F931F93CF93DF932C01EB018091CA
:10035000C702882329F48091CE02882309F495C02E
:1003600064E670E087EC92E00E94CD083C018824AE
:1003700099241092C70264E670E08EEC92E00E942D
:10038000CD085C01CC24DD241092CE0280E06816FA
:1003900080E0780681E0880680E0980628F08D8D60
:1003A0009E8D3C018824992480E0A81680E0B80640
:1003B00081E0C80680E0D80628F08F8D98A15C0106
:1003C000CC24DD24D401C3013DE0880F991FAA1F6E
:1003D000BB1F3A95D1F72B893C894D895E89821BD9
:1003E000930BA40BB50B2F85388949895A89BC0119
:1003F000CD010E94F61879018A01D601C5012DE0D0
:10040000880F991FAA1FBB1F2A95D1F72B893C89FA
:100410004D895E89821B930BA40BB50B2F85388900
:1004200049895A89BC01CD010E94F6187E8E6D8ED5
:10043000FA8EE98EB8A2AF8E3C8F2B8F82E0CA363F
:10044000D80779F4609187027091880286E190E084
:100450000E94F61A6091890270918A0284E190E00C
:1004600012C082E0CC38D80781F46091A902709163
:10047000AA0282E190E00E94F61A6091AB027091AC
:10048000AC0280E190E00E94F61AB20180E00E9486
:10049000121669E080E00E94A0154EEE52E062E084
:1004A0008D8D9E8D0E948B086EEE72E080E00E9422
:1004B000EE1560E071E080E00E94EE154EEE52E035
:1004C00062E08F8D98A10E948B086EEE72E080E052
:1004D0000E94EE1562E071E080E00E94EE1510923D
:1004E000EE0289A18B7F89A3DF91CF911F910F919C
:1004F000FF90EF90DF90CF90BF90AF909F908F9044
:100500007F906F905F904F900895FF920F931F938D
:10051000CF938B01F42EC091C702CC23B1F087ECAE
:1005200092E00E94341A1092C702660F771F881F4C
:10053000991F6F3F2FEF720720E0820720E092079C
:1005400018F5F801718360831FC0BC018C2F0E94D5
:10055000121669E08C2F0E94A015F801808191810C
:100560004AE050E06EEE72E0969587950E94AA1AD6
:100570006EEE72E08C2F0E94EE15C093EE0262E0E8
:1005800071E08C2F0E94EE1581E090E002C0880F90
:10059000991FFA94E2F7982F90958091B0028923E1
:1005A0008093B002CF911F910F91FF900895EF9229
:1005B000FF920F931F938B01FEEEEF2EF2E0FF2EC2
:1005C000BC0180E00E94121669E080E00E94A01544
:1005D0004AE050E0B701F801818192810E94AA1A95
:1005E000B70180E00E94EE1562E071E080E00E94B9
:1005F000EE151092EE02F80181A18F7E81A31F916A
:100600000F91FF90EF9008952F923F924F925F923B
:100610006F927F928F929F92AF92BF92CF92DF9212
:10062000EF92FF920F931F93CF93DF93CDB7DEB777
:1006300060970FB6F894DEBF0FBECDBF9A83898353
:10064000788B6F878091C702882369F48091CE02EE
:10065000882349F48091D502882329F48091DC0213
:10066000882309F463C187EC92E00E94341A6B83FB
:100670007C838D839E831092C70264E670E08EECCB
:1006800092E00E94CD081C01442455241092CE0211
:1006900085ED92E00E94341A6F83788789879A8764
:1006A0001092D50264E670E08CED92E00E94CD08D5
:1006B0007C0100271127EB86FC860D871E87109290
:1006C000DC020B811C812D813E81005010402140B5
:1006D000304058F0EF85F889878190857C010027AC
:1006E0001127EB82FC820D831E8300E0201600E0C0
:1006F000300601E0400600E0500638F0EF85F8894A
:10070000818592851C01442455240F8118852985F3
:100710003A85005010402140304058F0EF85F8896C
:10072000838594857C0100271127EF82F88609874D
:100730001A870B851C852D853E8500501040214071
:10074000304058F0EF85F889858596857C01002733
:100750001127EB86FC860D871E878B859C85AD85D2
:10076000BE8582199309A409B5095DE0880F991F18
:10077000AA1FBB1F5A95D1F72F81388549855A8505
:10078000EB80FC800D811E812E193F09400B510B1F
:10079000BC01CD010E94F61859016A018201710164
:1007A0004DE0EE0CFF1C001F111F4A95D1F7C6014A
:1007B000B5012B813C814D815E810E948E18DC0148
:1007C000CB01E81AF90A0A0B1B0BEF85F889858D16
:1007D000968DAA27BB273DE0880F991FAA1FBB1F34
:1007E0003A95D1F78E199F09A00BB10BBC01CD0131
:1007F000A60195010E94F61839014A01EF85F88992
:10080000878D90A1AA27BB272DE0880F991FAA1FCB
:10081000BB1F2A95D1F78E199F09A00BB10BBC0104
:10082000CD01A60195010E94F618DA01C901EF85F4
:10083000F889328621862B813C81308727834B853E
:100840005C85568745872F81388534872387A7861F
:10085000B08AC18AD28AE38AF48A058B168B728E9B
:10086000618E948F838F88279927DC018E199F09C9
:10087000A00BB10BBC01CD01A60195010E94F61899
:10088000EF85F889308F278B8789908D8050944031
:1008900020F0EF85F889108E178A0F8518890A567F
:1008A0001240F9F460917102709172028EE090E052
:1008B0000E94F61A60917302709174028CE090E0CD
:1008C0000E94F61A60917502709176028AE090E0BB
:1008D0000E94F61A609177027091780288E090E0A9
:1008E00023C04F8558894C58524001F560919302BE
:1008F0007091940286E090E00E94F61A6091950251
:100900007091960284E090E00E94F61A609197023E
:100910007091980282E090E00E94F61A609199022C
:1009200070919A0280E090E00E94F61A69817A81C3
:1009300080E00E94121669E080E00E94A0154AE063
:1009400050E06EEE72E0EF85F889878190850E9415
:10095000AA1A6EEE72E080E00E94EE1560E071E08F
:1009600080E00E94EE154EEE52E062E0EF85F889DD
:10097000818592850E948B086EEE72E080E00E9475
:10098000EE1560E071E080E00E94EE154AE050E074
:100990006EEE72E0EF85F889838594850E94AA1A2D
:1009A0006EEE72E080E00E94EE1560E071E080E0A3
:1009B0000E94EE154EEE52E062E0EF85F8898585E3
:1009C00096850E948B086EEE72E080E00E94EE1524
:1009D00062E071E080E00E94EE151092EE02EF8579
:1009E000F88981A1877F81A360960FB6F894DEBF56
:1009F0000FBECDBFDF91CF911F910F91FF90EF9070
:100A0000DF90CF90BF90AF909F908F907F906F902E
:100A10005F904F903F902F900895FF920F931F93F8
:100A2000CF938B01F42EC091E302CC2391F04AE0E6
:100A300050E060E070E083EE92E00E944619DC0135
:100A4000CB01F80180839183A283B3831092E302E8
:100A50001FC0BC018C2F0E94121669E08C2F0E94CF
:100A6000A0152AE030E045EF52E0F8016081718185
:100A7000828193810E94851A65EF72E08C2F0E941B
:100A8000EE15C093F50262E071E08C2F0E94EE1526
:100A900081E090E002C0880F991FFA94E2F7982F46
:100AA00090958091B00289238093B002CF911F91DD
:100AB0000F91FF9008950F931F936CE770E080E013
:100AC0000E94121660E073E080E00E94EE1569E07B
:100AD00080E00E94A01500E013E08FE4F80111927D
:100AE0008A95E9F7B801615B7F4F80E00E94EE15BF
:100AF00062E071E080E00E94EE15015B1F4F88E22A
:100B0000F80111928A95E9F78091B0028F7E809367
:100B1000B0021F910F910895BF92CF92DF92EF9292
:100B2000FF920F931F93CF93DF93982F83E5989FA6
:100B3000E0011124C958DC4F60E0892F0E9487181A
:100B4000EE24FF2473E1B72E8E010F5A1F4FF801D8
:100B5000908162E5C62ED12CCC0EDD1EF60180817F
:100B6000282F3327A701490F511DCA01B9010E943F
:100B7000C118FE01E80FF91F80810E942F18BA9456
:100B80000894E11CF11CB7FEDFCF10921E041092F6
:100B90001D04F8018081482F5527F6018081282FF8
:100BA0003327CA010196B9010E94C118F801808358
:100BB000DF91CF911F910F91FF90EF90DF90CF9039
:100BC000BF9008950F931F93CF93DF93082F10E0EA
:100BD000612F0E94871883E5089FE0011124C958FE
:100BE000DC4F13E18881882311F0899101C080E2F4
:100BF0000E942F18115017FFF5CF002321F4809188
:100C0000B0028F7D03C08091B0028F7B8093B002D1
:100C1000DF91CF911F910F910895CFEBD4E0DEBF0C
:100C2000CDBF88E190E02DE00FB6F894A8958093B1
:100C300060000FBE209360000E94FE090E94BA0966
:100C40000E9473090E9465090E94031540E052EC5E
:100C500061E070E080E00E94861440E855E260E0C8
:100C600070E081E00E9486146DEB70E180E00E94EC
:100C7000081564E074E181E00E9408150E9447189D
:100C800060E0862F0E94871861E870E0CE0101962F
:100C90000E94691ACE0101960E94331860E081E03B
:100CA0000E94871860E970E0CE0101960E94691ADF
:100CB000CE0101960E94331878948091AF0281FF93
:100CC0002BC08091AF028D7F8093AF028091BF02D5
:100CD0009091C002A091C102B091C2020197A109F6
:100CE000B1098093BF029093C002A093C102B09358
:100CF000C2028091BB029091BC02A091BD02B09152
:100D0000BE020197A109B1098093BB029093BC0276
:100D1000A093BD02B093BE0262E071E080E00E9449
:100D2000EE156FE970E080E00E94121662E071E05B
:100D300080E00E94EE15A8958091AF0281FF32C03D
:100D40008091C3029091C402892B61F565EA70E03D
:100D500080E00E9412162AE030E0AE014F5F5F4F44
:100D60006091BF027091C0028091C1029091C20255
:100D70000E94851ABE016F5F7F4F80E00E94EE15D2
:100D800062E071E080E00E94EE158091C5029091D2
:100D9000C6029093C4028093C3028091AF028D7FFC
:100DA0008093AF028091AF0280FF16C06AEA70E0C4
:100DB00080E00E9412166091BA0280E00E94A015A5
:100DC0001092BA0262E071E080E00E94EE1580911C
:100DD000AF028E7F8093AF028091AF0282FF16C078
:100DE0008091AF0284FF03C06EEA70E002C067EB3F
:100DF00070E080E00E94121662E071E080E00E94E4
:100E0000EE158091AF028B7F8093AF028091AF028D
:100E100085FF16C08091AF0287FF03C060EC70E0D1
:100E200002C06AEC70E080E00E94121662E071E09D
:100E300080E00E94EE158091AF028F7D8093AF021B
:100E400080918B0280FF1CC080918B0281FF03C0C8
:100E500064ED70E002C06FED70E080E00E94121659
:100E600062E071E080E00E94EE1580918B0281FFCC
:100E700002C00E94300D80918B028E7F80938B0286
:100E80008091AD0280FF16C08091AD0281FF03C04A
:100E90006AEE70E002C061EF70E080E00E9412161E
:100EA00062E071E080E00E94EE158091AD028E7FDD
:100EB0008093AD0280918B0282FF08C0E9E4F1E0EB
:100EC000859194916AE672E00E94950180918B026F
:100ED00083FF08C0E1E4F1E0859194916AE672E055
:100EE0000E94040380918B0284FF08C0EDE4F1E0CE
:100EF000859194916AE672E00E94D70280918B02FC
:100F000085FF08C0E5E4F1E0859194916AE672E01E
:100F10000E942E018091AD0282FF08C0E1E3F1E062
:100F2000859194916CE872E00E9495018091AD02E8
:100F300083FF08C0EDE0F1E0859194916CE872E0E8
:100F40000E9404038091AD0284FF08C0E1E1F1E05A
:100F5000859194916CE872E00E94D7028091AD0275
:100F600085FF08C0EDE2F1E0859194916CE872E0B4
:100F70000E942E018091B00280FF09C0E1E0F1E003
:100F80008591949140E06FEB72E00E940D05809195
:100F9000B00281FF09C0E9E0F1E08591949141E060
:100FA0006BEB72E00E940D058091B00282FF09C0D8
:100FB000E5E0F1E08591949142E065EC72E00E94F9
:100FC00085028091B00283FF09C0E9E2F1E08591DA
:100FD000949143E068EB72E00E9485028091B00238
:100FE00084FF02C00E945B058091B00285FF03C0B0
:100FF00080E00E94E2058091B00286FF03C081E09C
:101000000E94E20580911D0490911E04855F91402D
:1010100070F08091C903853118F080E00E948C0542
:1010200080911C04853118F081E00E948C0580912C
:10103000B10280FF0AC0E9EFF0E08591949121E0D0
:1010400040E460E270E00E9405018091B10281FFFE
:101050000AC0EDE1F1E08591949122E040E466E27E
:1010600070E00E9405018091B10282FF0AC0E9E3AD
:10107000F1E08591949124E040E860E270E00E9404
:1010800005018091B10283FF0AC0E1E2F1E08591A0
:10109000949128E040E866E270E00E9405018091AA
:1010A000B10284FF0AC0EDE3F1E08591949120E163
:1010B00040E869E270E00E9405018091B10285FF7D
:1010C0000AC0E5E2F1E08591949120E240E16FEA07
:1010D00072E00E9405018091B10286FF0AC0EDEF27
:1010E000F0E08591949120E440E86FEA72E00E947C
:1010F00005018091B00287FF1ECE0E94300D88E16D
:1011000090E028E00FB6F894A895809360000FBE99
:1011100020936000FFCF1F93CF93DF93FC01162F26
:10112000EA01613019F40A97F0F41BC0623039F417
:101130008A30910580F084369105A8F412C063309E
:1011400091F48A30910520F480E3899389930AC051
:101150008436910510F480E3F9CF83E0E83EF80788
:1011600010F480E389934AE050E0BE01CF010E9471
:10117000AA1A89918823E9F7212F2F5F222339F0BA
:10118000FE01319780818883EF012150F7CF8EE2F5
:101190008883DF91CF911F910895CF92DF92EF92D4
:1011A000FF920F931F93CF93DF93CDB7DEB72297B4
:1011B0000FB6F894DEBF0FBECDBFFC017A83698302
:1011C0006C019081892F80538A3028F09E3219F06B
:1011D00080E090E06BC090539A3040F40894C11CBA
:1011E000D11CD6018C9180538A30C0F3D6018C91EA
:1011F0008E3209F04BC01D926D01CF010E94341A4E
:101200007B018C0189819A819C0144275527C80163
:10121000B7010E948E187B018C0189819A816AE056
:1012200070E00E94AD187A83698389819A81892B45
:10123000E1F1F6019081892F80538A30B0F5892F32
:10124000992787FD9095C09729813A81829FA001B7
:10125000839F500D929F500D1124CA01AA27BB27CE
:10126000E80EF91E0A1F1B1F0894C11CD11C89819E
:101270009A816AE070E00E94AD187A83698389815F
:101280009A81892B91F0D6019C91D5CFCF010E94F4
:10129000341ADC01CB0129813A8144275527BC014E
:1012A000CD010E948E187B018C01C70122960FB6DA
:1012B000F894DEBF0FBECDBFDF91CF911F910F918C
:1012C000FF90EF90DF90CF90089584E287BD84B5C2
:1012D000826084BD85B5846085BD80916E0082602A
:1012E00080936E00089510926A0281E080938C02D0
:1012F00010928B021092AD0210926C0210926B024F
:1013000010926D0210926E0210926F021092700293
:1013100010928E0210928D0210928F021092900203
:10132000109291021092920280917A0087608093CD
:101330007A0080917E00836080937E0080917C00A3
:10134000806480937C0080917A00806880937A002A
:101350001092AE0280917C00807F80937C0080910F
:101360007A00806480937A0080918B0282608093FF
:101370008B02089584B1806F84B985B18F7085B96F
:1013800083B18F6083B985B18F6085B91092BA023D
:101390001092BF021092C0021092C1021092C202BB
:1013A0001092C4021092C3021092B2021092B302C1
:1013B0001092B4021092B50282B182B98BB18067EB
:1013C0008BB90E9A069816980F9A9FE780B18923D9
:1013D00080B982B1892382B93E9A369846983F9A5D
:1013E00086B1892386B988B1892388B9579A89B18A
:1013F000892389B98BB189238BB90895EF92FF9224
:101400000F931F93CF93DF93CDB7DEB724970FB61B
:10141000F894DEBF0FBECDBF44E050E06FE170E056
:10142000CE0101960E94C01A89819A81AB81BC814C
:101430008F5F9F4FAF4FBF4F61F419821A821B829B
:101440001C8244E050E06FE170E0CE0101960E9402
:10145000DE1A89819A81AB81BC818093BB02909313
:10146000BC02A093BD02B093BE028EE190E00E9448
:10147000D01A182F8F3F31F418E4612F8EE190E0DD
:101480000E94E81A1093AF028CE190E00E94D81AF3
:101490008C018FEF0F3F180739F404E610E0B80114
:1014A0008CE190E00E94F61A000F111F1093C60203
:1014B0000093C5028AE190E00E94D81A8C018F5FE8
:1014C0009F4F39F404E010E0B8018AE190E00E94F7
:1014D000F61A000F111F1093B7020093B60288E1AD
:1014E00090E00E94D81A8C018FEF0F3F180739F453
:1014F00000E117E2B80188E190E00E94F61A000FBF
:10150000111F1093B9020093B8028EE090E00E9480
:10151000D81A8C018F5F9F4F39F404E610E0B801B0
:101520008EE090E00E94F61A10937202009371020E
:101530008CE090E00E94D81A8C018FEF0F3F1807C3
:1015400039F400E010E0B8018CE090E00E94F61A57
:1015500010937402009373028AE090E00E94D81AFC
:101560008C018F5F9F4F39F40EE013E0B8018AE0E1
:1015700090E00E94F61A109376020093750288E0BC
:1015800090E00E94D81A8C018FEF0F3F180739F4B2
:101590000AEC15E0B80188E090E00E94F61A10937A
:1015A00078020093770280917702909178027C0113
:1015B000002711278091730290917402AA27BB27FC
:1015C000E81AF90A0A0B1B0BFDE0EE0CFF1C001FCA
:1015D000111FFA95D1F780917502909176029C01C6
:1015E000442755278091710290917202AA27BB2748
:1015F000281B390B4A0B5B0BC801B7010E94F61878
:101600002093790230937A0240937B0250937C02BC
:1016100080917302909174027C0100271127EDE004
:10162000EE0CFF1C001F111FEA95D1F7809171028B
:10163000909172029C0144275527809179029091E4
:101640007A02A0917B02B0917C02BC01CD010E9484
:101650008E18DC01CB01E81AF90A0A0B1B0BE09289
:101660007D02F0927E0200937F02109380028091AF
:101670007D0290917E02A0917F02B0918002B09590
:10168000A095909581959F4FAF4FBF4F20917902C4
:1016900030917A0240917B0250917C02BC01CD01D5
:1016A0000E94F61830938202209381028091810279
:1016B000909182028050944020F010928202109209
:1016C000810286E190E00E94D81A8C018FEF0F3FD3
:1016D000180739F40AE114E0B80186E190E00E94AD
:1016E000F61A1093880200938702C801AA27BB2725
:1016F0007DE0880F991FAA1FBB1F7A95D1F7209113
:101700007D0230917E0240917F0250918002821BC7
:10171000930BA40BB50B2091790230917A02409182
:101720007B0250917C02BC01CD010E94F6183093DF
:1017300084022093830284E190E00E94D81A8C01F5
:101740008F5F9F4F39F40EE714E0B80184E190E019
:101750000E94F61A10938A0200938902C801AA27F0
:10176000BB276DE0880F991FAA1FBB1F6A95D1F791
:1017700020917D0230917E0240917F025091800243
:10178000821B930BA40BB50B2091790230917A0246
:1017900040917B0250917C02BC01CD010E94F61861
:1017A000309386022093850286E090E00E94D81A4A
:1017B0008C018FEF0F3F180739F40FE710E0B801E5
:1017C00086E090E00E94F61A109394020093930230
:1017D00084E090E00E94D81A8C018F5F9F4F39F40B
:1017E00000E010E0B80184E090E00E94F61A109347
:1017F00096020093950282E090E00E94D81A8C0134
:101800008FEF0F3F180739F407E612E0B80182E0C6
:1018100090E00E94F61A109398020093970280E0DD
:1018200090E00E94D81A8C018F5F9F4F39F408E82E
:1018300013E1B80180E090E00E94F61A10939A023A
:10184000009399028091990290919A027C0100275D
:1018500011278091950290919602AA27BB27E81A3A
:10186000F90A0A0B1B0B5DE0EE0CFF1C001F111F99
:101870005A95D1F780919702909198029C01442744
:1018800055278091930290919402AA27BB27281B89
:10189000390B4A0B5B0BC801B7010E94F618209365
:1018A0009B0230939C0240939D0250939E02809134
:1018B0009502909196027C01002711274DE0EE0CD5
:1018C000FF1C001F111F4A95D1F780919302909140
:1018D00094029C014427552780919B0290919C0281
:1018E000A0919D02B0919E02BC01CD010E948E1874
:1018F000DC01CB01E81AF90A0A0B1B0BE0929F02EC
:10190000F092A0020093A1021093A20280919F0284
:101910009091A002A091A102B091A202B095A095D1
:10192000909581959F4FAF4FBF4F20919B02309173
:101930009C0240919D0250919E02BC01CD010E94EB
:10194000F6183093A4022093A3028091A3029091F1
:10195000A4028050944020F01092A4021092A3029E
:1019600082E190E00E94D81A8C018FEF0F3F180798
:1019700039F406E910E0B80182E190E00E94F61A1D
:101980001093AA020093A902C801AA27BB273DE031
:10199000880F991FAA1FBB1F3A95D1F720919F026C
:1019A0003091A0024091A1025091A202821B930BA0
:1019B000A40BB50B20919B0230919C0240919D029B
:1019C00050919E02BC01CD010E94F6183093A602F0
:1019D0002093A50280E190E00E94D81A8C018F5FCD
:1019E0009F4F39F40CE310E0B80180E190E00E94D1
:1019F000F61A1093AC020093AB02C801AA27BB27CA
:101A00002DE0880F991FAA1FBB1F2A95D1F720919F
:101A10009F023091A0024091A1025091A202821B2C
:101A2000930BA40BB50B20919B0230919C0240912B
:101A30009D0250919E02BC01CD010E94F618309388
:101A4000A8022093A70224960FB6F894DEBF0FBE1B
:101A5000CDBFDF91CF911F910F91FF90EF9008952F
:101A600044E050E06FE170E08BEB92E00E94DE1A00
:101A70008091AF028874682F8EE190E00E94E81A8E
:101A80008091C5029091C60296958795BC018CE124
:101A900090E00E94F61A8091B6029091B702969556
:101AA0008795BC018AE190E00E94F61A8091B80205
:101AB0009091B90296958795BC0188E190E00E94CB
:101AC000F61A0895CF93DF936091780070917900B2
:101AD0008091AE02882349F420916D0230916E020C
:101AE00040916F02509170022CC080911E01909124
:101AF0001F018617970720F470931F0160931E0142
:101B0000809120018F5F80932001823170F080915D
:101B10001E0190911F0190931D0180931C01109252
:101B20001F0110921E011092200160911C01709102
:101B30001D0120918F0230919002409191025091AD
:101B40009202BB27A52F942F832F281B390B4A0BFA
:101B50005B0BCB01AA27BB27280F391F4A1F5B1F2E
:101B60008091AE02DD27C52FB42FA32F8823B1F4B7
:101B700020936D0230936E0240936F025093700277
:101B8000B0936C02A0936B0280917C00807F816097
:101B900080937C0081E08093AE0213C020938F027B
:101BA000309390024093910250939202B0938E0230
:101BB000A0938D0280917C00807F80937C001092A6
:101BC000AE0280917A00806480937A00CD01DF912B
:101BD000CF91089599278230910561F18330910565
:101BE0001CF4019749F083C08330910509F440C08B
:101BF000049709F45BC07BC077276230710589F0D8
:101C00006330710524F46130710541F06DC06330BB
:101C1000710551F06430710551F066C081E390E0C8
:101C2000089582E390E0089583E390E0089581E4CD
:101C300090E0089577276230710589F0633071056F
:101C400024F46130710541F04FC06330710551F0EB
:101C50006430710551F048C084E390E0089585E355
:101C600090E0089586E390E0089582E490E008957E
:101C700077276230710589F06330710524F4613093
:101C8000710541F031C06330710551F06430710568
:101C900051F02AC087E390E0089588E390E008952A
:101CA00089E390E0089583E490E008957727623017
:101CB000710589F06330710524F46130710541F0DC
:101CC00013C06330710551F06430710551F00CC0E0
:101CD0008AE290E0089580E390E0089583E290E046
:101CE000089584E490E0089580E090E0089580E015
:101CF00090E008951F920F920FB60F921124FF9259
:101D00000F931F932F933F934F935F936F937F9303
:101D10008F939F93AF93BF93CF93DF93EF93FF93F3
:101D2000C0E00C2FFC2E1091AE020E94620D9C01AF
:101D3000112351F58091830290918402281739076D
:101D400068F480918B0281FD05C080918B028160D7
:101D500080938B0280918B02826013C080918502F8
:101D60009091860282179307C0F580918B0281FFC4
:101D700005C080918B02816080938B0280918B02E1
:101D80008D7F80938B0229C08091A5029091A6023D
:101D90008217930768F48091AD0281FD05C08091A0
:101DA000AD0281608093AD028091AD02826013C06C
:101DB0008091A7029091A8022817390770F48091AA
:101DC000AD0281FF05C08091AD0281608093AD02BC
:101DD0008091AD028D7F8093AD0282B182B915985A
:101DE00085B18F6085B985B18F7085B98BB18067FA
:101DF0008BB98BB18BB94C99C1E04D99C260059BF1
:101E000004C08091AF0283FD05C0059904C0809194
:101E1000AF0283FFC4604E9B04C08091AF0286FD79
:101E200005C04E9904C08091AF0286FFC068189B20
:101E3000C860199BC0611A9BC0621B9BC064409123
:101E400021015C2F5427252F332720FD02C086E077
:101E500005C080910501882321F081508093050100
:101E600001C001E021FD02C086E005C080910601AD
:101E7000882321F081508093060101C0026022FD79
:101E800005C0809107019091080107C08091090168
:101E900090910A01009731F0019790930A01809385
:101EA000090101C0046057FD02C080E205C08091B5
:101EB0000F01882321F0815080930F0101C0006839
:101EC00023FD02C080E205C080910B01882321F030
:101ED000815080930B0103C0086011E0F12E24FDB6
:101EE00002C080E205C080910C01882321F081505E
:101EF00080930C0103C00061B2E0FB2E25FD02C0FF
:101F000080E205C080910D01882321F081508093EB
:101F10000D0103C00062A3E0FA2E26FD02C080E29C
:101F200005C080910E01882321F0815080930E011D
:101F300004C00064FF246894F2F8C023802F8095C9
:101F40004823C42BC09321018091C3029091C40205
:101F5000892B49F08091C3029091C402019790931C
:101F6000C4028093C302C02FDD27CE01837090701E
:101F7000892B59F18091AF0282608093AF028091EA
:101F8000BB029091BC02A091BD02B091BE0201962D
:101F9000A11DB11D8093BB029093BC02A093BD0212
:101FA000B093BE028091BF029091C002A091C10285
:101FB000B091C2020196A11DB11D8093BF02909302
:101FC000C002A093C102B093C202CE018877907084
:101FD000892B09F45EC08091AF0280FD5AC08091C8
:101FE0002101992788779070892B09F452C023B179
:101FF0002F7060E02C9A81E08A95F1F783B19927E0
:102000008F709070422F55278417950709F061E073
:102010002C98662369F42D9A81E08A95F1F783B1B3
:1020200099278F7090708417950709F062E02D98BA
:10203000662369F42E9A81E08A95F1F783B1992796
:102040008F7090708417950709F063E02E986623CF
:1020500071F42F9A81E08A95F1F783B199278F70F7
:10206000907033278217930709F064E02F98FF20C0
:1020700081F0662371F08F2D0E94EA0D8093BA02E1
:102080008091BA02882329F08091AF028160809309
:10209000AF02C2FF20C08091AF0284608093AF0284
:1020A0008091210182FF0AC08091AF0280618093FC
:1020B000AF028091B8029091B90209C08091AF023D
:1020C0008F7E8093AF028091B6029091B702909379
:1020D00008018093070107FF12C08091AF02806260
:1020E0008093AF028091210187FF04C08091AF02ED
:1020F000806803C08091AF028F778093AF02809198
:102100001D0490911E04019690931E0480931D045B
:10211000FF91EF91DF91CF91BF91AF919F918F91FF
:102120007F916F915F914F913F912F911F910F91EF
:10213000FF900F900FBE0F901F901895DC01FB01D0
:1021400025913491A9014F5F5F4FF901849106C039
:10215000281749F4FA014F5F5F4F84912D91222394
:1021600011F08823A9F7332727FD3095992787FD9C
:102170009095281B390BC9010895FF920F931F9367
:10218000CF93DF93F82E8DE0F81631F0EAE0FE16DB
:1021900019F0F9E0FF1679F5E0911801F0911901B5
:1021A00010820EE910E124E030E046E150E069EFF2
:1021B00070E080E191E00E941119EC01009791F02C
:1021C000FC01329605911491B80180E00E94081537
:1021D000FE01859194919093200480931F048F2D8C
:1021E000F801099580E191E090931901809318011D
:1021F000109210011AC0A0911801B091190180919C
:102200001A0190911B01A817B90748F4FD01F1923A
:10221000F0931901E0931801FD01118206C080E1DD
:1022200091E09093190180931801DF91CF911F9154
:102230000F91FF900895982FFB018D3011F08A3097
:10224000C1F480912201882361F481E090E002C012
:10225000880F991F2A95E2F72091B102282B20932D
:10226000B102109222016DEB70E180E00E9408152E
:1022700008958930A1F080912201882381F491335F
:1022800019F48081842B05C0903321F4409580811E
:1022900084238083809122018F5F8093220108959F
:1022A00020E040E462E270E00E941B1108958D304E
:1022B00011F08A30A9F580912301882339F0E0914B
:1022C0002401F0912501E80FF11D1082662321F40D
:1022D0008091B002806203C08091B00280648093DC
:1022E000B002262F332783E590E0289FF001299F35
:1022F000F00D389FF00D1124E659FD4FE15AFE4FC5
:102300008091230180831292109223011092250163
:10231000109224016DEB70E180E00E940815089591
:102320008930F9F4262F332783E590E0289FF001C8
:10233000299FF00D389FF00D1124E659FD4FE15A09
:10234000FE4F1082129283E5689FF0011124E95834
:10235000FC4FF0932501E093240110821092230199
:102360000895E0912401F0912501309761F090915A
:102370002301903540F4E90FF11D80838091230102
:102380008F5F80932301089560E00E9457110895A4
:1023900061E00E945711089521E040E468E270E096
:1023A0000E941B11089522E040E862E270E00E9462
:1023B0001B11089523E040E868E270E00E941B11C1
:1023C000089524E040E86BE270E00E941B1108953C
:1023D000FB018D3011F08A3079F481E090E002C089
:1023E000880F991F4A95E2F72081282B20836DEBF7
:1023F00070E180E00E940815089545E06BE872E006
:102400000E94E811089544E06BE872E00E94E81130
:10241000089545E06DEA72E00E94E811089544E0F5
:102420006DEA72E00E94E811089525E048E06FEA45
:1024300072E00E941B11089526E040E46FEA72E00A
:102440000E941B11089547E060EB72E00E94E811C2
:1024500008950F931F93CF93C82FDB01342F67ECA0
:1024600072E0FB013796AB01425F5F4F8B010B5E61
:102470001F4F8D3019F08A3009F042C0E0912801D9
:10248000EE2321F0FF27E953FD4F1082E09129014F
:10249000EE2321F0FF27E253FD4F1082E0912A0145
:1024A000EE2321F0FF27EB52FD4F1082E0912B012C
:1024B000EE2321F0FF27E452FD4F108281E090E0EF
:1024C00002C0880F991F3A95E2F72C91282B2C9384
:1024D00010922B0110922A011092290110922801CA
:1024E000109227011092260110922D0110922C01BA
:1024F00010922E016DEB70E180E00E940815E2C0A1
:10250000893009F0C0C080912E01821708F0BBC04D
:10251000882361F58091C7028823E1F010922D0194
:1025200010922C0110922701109226018091B20284
:102530009091B302A091B402B091B5020196A11D91
:10254000B11D8093B2029093B302A093B402B093F2
:10255000B5020AC0709327016093260188E291E0DA
:1025600090932D0180932C0181E08AC0813061F528
:102570008091CE028823E1F010922D0110922C015F
:1025800010922701109226018091B2029091B3021D
:10259000A091B402B091B5020196A11DB11D809326
:1025A000B2029093B302A093B402B093B5020AC0F2
:1025B000F0932701E093260189E291E090932D01A9
:1025C00080932C0182E05CC0823061F58091D5025D
:1025D0008823E1F010922D0110922C011092270116
:1025E000109226018091B2029091B302A091B402A0
:1025F000B091B5020196A11DB11D8093B2029093D6
:10260000B302A093B402B093B5020AC0509327015D
:10261000409326018AE291E090932D0180932C0152
:1026200083E02EC0833009F04DC08091DC02882306
:10263000E1F010922D0110922C01109227011092BE
:1026400026018091B2029091B302A091B402B091A0
:10265000B5020196A11DB11D8093B2029093B30201
:10266000A093B402B093B5020AC01093270100935F
:1026700026018BE291E090932D0180932C0184E060
:1026800080932E011FC0E0912C01F0912D01309715
:10269000C9F010811630B0F48C2F99270E945B1A74
:1026A000892B11F4CE3271F4E0912601F0912701CB
:1026B000E10FF11DC083E0912C01F0912D0180818B
:1026C0008F5F8083CF911F910F91089521E043E0A8
:1026D00060EB72E00E942912089522E0422F6DEA19
:1026E00072E00E942912089524E043E06DEA72E04E
:1026F0000E942912089524E043E06BE872E00E94F2
:102700002912089522E0422F6BE872E00E942912FC
:10271000089521E042E060EB72E00E9429120895E2
:102720000F931F93CF93DF93182F8D3011F08A30C2
:1027300019F580912F01882339F0E0913001F09153
:102740003101E80FF11D108281E090E002C0880F96
:10275000991F6A95E2F72091B002282B2093B002CE
:1027600010922F0110923101109230016DEB70E147
:1027700080E00E9408153BC0893011F583EE92E09D
:1027800090933101809330018091E302882379F1A5
:1027900010923101109230018091B2029091B302F7
:1027A000A091B402B091B5020196A11DB11D809314
:1027B000B2029093B302A093B402B093B50217C0D3
:1027C000C0913001D0913101209789F000912F0103
:1027D0000A3068F499270E945B1A892B41F0C00FD8
:1027E000D11D188380912F018F5F80932F01DF917E
:1027F000CF911F910F91089561E00E949013089569
:1028000060E00E9490130895982F853289F480919A
:102810003401882309F06AC081E08093340180E0AC
:1028200093E090933301809332018091000312C0B2
:102830008B3359F580913401882309F057C082E029
:10284000809334018FE493E09093330180933201BD
:1028500080914F03882309F458C0109233011092DD
:1028600032018091B2029091B302A091B402B09172
:10287000B5020196A11DB11D8093B2029093B302DF
:10288000A093B402B093B50208958F3359F5209107
:102890003401222359F181E090E002C0880F991F92
:1028A0002A95E2F720913501282B20933501E091FC
:1028B0003201F09133011192F0933301E093320130
:1028C00080913501863039F4109235018091B00243
:1028D00080618093B0021092340110923301109203
:1028E000320108958D3089F08A3079F08091340179
:1028F000882359F0E0913201F0913301309729F0AB
:102900009193F0933301E093320108951F93182FB0
:10291000DB01CA0173E0880F991FAA1FBB1F7A95BC
:10292000D1F79C01AD01220F331F441F551F80506A
:10293000904CA64EBE4FBC01CD010E94D418DA01C6
:10294000C9010197292F3327112329F08093CC0047
:102950002093CD0004C08093C4002093C5001F9134
:10296000089540E150E066E472E089E294E00E945C
:10297000301740E150E066E572E08BE394E00E949E
:10298000301708950E94B1141092690210926802E3
:1029900088E98093C90040E855E260E070E081E09A
:1029A0000E9486141092320410924604109245043C
:1029B0007894089540E150E066E371E081E294E0AC
:1029C0000E94301740E051E066E471E083E394E058
:1029D0000E94301708950E94DA1410926702109234
:1029E000660288E98093C10040E052EC61E070E04B
:1029F00080E00E94861410923104109244041092D8
:102A00004304789408950E94EB140E94C214089520
:102A1000823040F4E82FFF27EE0FFF1FEA59FD4FE9
:102A20007183608308959927E3E0880F991FEA95E1
:102A3000E1F78F5D9B4F08959927F3E0880F991F69
:102A4000FA95E1F78D5C9B4F0895CF93DF93EB01EF
:102A5000E82FFF27A3E0EE0FFF1FAA95E1F7EF5D38
:102A6000FB4F82819381009751F08481958100977B
:102A700031F0CF010E943E1788838FEF90E0DF9105
:102A8000CF910895CF93DF93CDB7DEB721970FB6DF
:102A9000F894DEBF0FBECDBFBE016F5F7F4F81E0F8
:102AA0000E942515882319F08981992702C08FEF8C
:102AB0009FEF21960FB6F894DEBF0FBECDBFDF911A
:102AC000CF910895CF93DF93CDB7DEB721970FB69F
:102AD000F894DEBF0FBECDBFBE016F5F7F4F80E0B9
:102AE0000E942515882319F08981992702C08FEF4C
:102AF0009FEF21960FB6F894DEBF0FBECDBFDF91DA
:102B0000CF9108959927B3E0880F991FBA95E1F7FF
:102B10008F5D9B4F0E94F517089520E030E0E82F6D
:102B2000FF2783E0EE0FFF1F8A95E1F7EF5DFB4F74
:102B300084819581892B11F421E030E0C901089549
:102B40001F93182F992733E0880F991F3A95E1F7C3
:102B50008D5C9B4F0E94B717112331F08091C90003
:102B600080628093C90005C08091C100806280931B
:102B7000C1001F910895682F80E00E94A01508955C
:102B8000682F81E00E94A0150895FF920F931F9374
:102B9000CF93DF93F82E8B01EA01452BC9F0EF2D7F
:102BA000FF2743E0EE0FFF1F4A95E1F7ED5CFB4F77
:102BB000248135818281938128173907C8F7F8016C
:102BC00081918F01682F8F2D0E94A015219739F7D1
:102BD000DF91CF911F910F91FF9008951F93CF9395
:102BE000DF93182FEB0188818823C1F0E12FFF27A5
:102BF00053E0EE0FFF1F5A95E1F7ED5CFB4F248188
:102C000035818281938128173907C8F78991682F08
:102C1000812F0E94A0158881882341F7DF91CF91F1
:102C20001F9108951F93CF93DF93182FEB01FB01A2
:102C3000219664916623C1F0E12FFF2773E0EE0F28
:102C4000FF1F7A95E1F7ED5CFB4F2481358182818E
:102C5000938128173907C8F7812F0E94A015FE011C
:102C600021966491662341F7DF91CF911F910895DA
:102C7000282FE82FFF27DF01AF5CBB4F8FEF8C932E
:102C800083E0EE0FFF1F8A95E1F7ED5CFB4F848137
:102C90009581892B81F0222339F08BE394E00E9407
:102CA0003E178093CE00089583E394E00E943E1780
:102CB0008093C60008951C92222331F08091C900B0
:102CC0008F7D8093C90008958091C1008F7D80938E
:102CD000C1000895CF93DF93882319F06091CE004F
:102CE00002C06091C600282F3327E901C20FD31F0D
:102CF000FE01EA59FD4F80819181892B31F00190CD
:102D0000F081E02D862F099514C093E0220F331F28
:102D10009A95E1F7C9018F5D9B4F0E94B7178823F1
:102D200041F4FE01ED5BFB4F80819181019691831F
:102D30008083DF91CF9108951F920F920FB60F926B
:102D400011242F933F934F935F936F937F938F93B0
:102D50009F93AF93BF93EF93FF9380E00E94381649
:102D6000FF91EF91BF91AF919F918F917F916F9163
:102D70005F914F913F912F910F900FBE0F901F9039
:102D800018951F920F920FB60F9211242F933F9315
:102D90004F935F936F937F938F939F93AF93BF9363
:102DA000EF93FF9381E00E943816FF91EF91BF915E
:102DB000AF919F918F917F916F915F914F913F91D3
:102DC0002F910F900FBE0F901F9018951F920F928A
:102DD0000FB60F9211242F933F934F935F936F93EE
:102DE0007F938F939F93AF93BF93EF93FF9380E075
:102DF0000E946A16FF91EF91BF91AF919F918F91C1
:102E00007F916F915F914F913F912F910F900FBEE6
:102E10000F901F9018951F920F920FB60F921124CA
:102E20002F933F934F935F936F937F938F939F93D2
:102E3000AF93BF93EF93FF9381E00E946A16FF91D7
:102E4000EF91BF91AF919F918F917F916F915F9122
:102E50004F913F912F910F900FBE0F901F9018959B
:102E6000FC019A014FB7F894718360833383228306
:102E700017821682158214824FBF0895CF93DF9375
:102E8000DC01E0E04FB7F894EC018C819D81892B47
:102E900039F18D919C9111978E819F81ED91FC91DB
:102EA00011978E819F81E80FF91FE0818E819F81AC
:102EB00001969F838E832E813F818A819B81281773
:102EC000390740F08E819F812A813B81821B930BC1
:102ED0009F838E83ED018C819D8101979D838C83DF
:102EE0004FBF8E2F9927DF91CF910895FC014FB7E7
:102EF000F8948481958168177907E0F48681978139
:102F0000860F971F978386832681378182819381DD
:102F10002817390740F08681978122813381821BEF
:102F2000930B9783868384819581861B970B95836A
:102F3000848302C0158214824FBF08951F93FC0141
:102F40001FB7F8948681978122813381860F971F5E
:102F5000B9010E94AD18208131810190F081E02DEE
:102F6000E80FF91F80811FBF99271F9108950F93C4
:102F70001F93CF93DF93EC01062F1FB7F8942C819A
:102F80003D818A819B8128173907D8F44E815F8162
:102F90008C819D812A813B81840F951FB9010E94FC
:102FA000AD1828813981E881F981E80FF91F008384
:102FB0008C819D8101969D838C831FBF8FEF90E054
:102FC00003C01FBF80E090E0DF91CF911F910F9170
:102FD0000895FC014FB7F894228133818481958153
:102FE0004FBF281B390BC9010895FC018FB7F89416
:102FF000158214828FBF08954098282F332724FD0F
:10300000409A419825FD419A429826FD429A43985C
:1030100087FD439A459A86E08A95F1F74598089589
:103020001F93182F0E94FC17812F8295807F0E948A
:10303000FC178FEC90E00197F1F71F9108951F9313
:10304000182F44980E941018812F992701970397F1
:1030500020F480E094E20197F1F71F910895449ADB
:103060000E94101808951F93CF93DF93EC0114E191
:103070008881882311F0219601C080E20E942F18D8
:10308000115017FFF5CFDF91CF911F9108950F9346
:103090001F93389A399A3A9A3B9A3C9A3D9A4598A6
:1030A000449826E930E08CEC91E00197F1F721504B
:1030B0003040C9F780E30E94FC1780E09AE5019751
:1030C000F1F780E30E94FC1703EB12E0C8010197BF
:1030D000F1F780E30E94FC17C8010197F1F780E245
:1030E0000E94FC17C8010197F1F788E20E941F189F
:1030F00088E00E941F1881E00E941F1886E00E944D
:103100001F188CE00E941F181F910F91089580FDD9
:10311000605C862F80580E941F180895629FD0011E
:10312000739FF001829FE00DF11D649FE00DF11D82
:10313000929FF00D839FF00D749FF00D659FF00D31
:103140009927729FB00DE11DF91F639FB00DE11D1E
:10315000F91FBD01CF0111240895AA1BBB1B51E12A
:1031600007C0AA1FBB1FA617B70710F0A61BB70BF7
:10317000881F991F5A95A9F780959095BC01CD019C
:10318000089597FB092E07260AD077FD04D0E5DFC6
:1031900006D000201AF4709561957F4F0895F6F7D8
:1031A000909581959F4F0895A1E21A2EAA1BBB1BF3
:1031B000FD010DC0AA1FBB1FEE1FFF1FA217B30703
:1031C000E407F50720F0A21BB30BE40BF50B661F19
:1031D000771F881F991F1A9469F7609570958095DD
:1031E00090959B01AC01BD01CF01089597FB092E7D
:1031F00005260ED057FD04D0D7DF0AD0001C38F4C6
:1032000050954095309521953F4F4F4F5F4F089512
:10321000F6F790958095709561957F4F8F4F9F4FF2
:103220000895A0E0B0E0E7E1F9E10C94141B4C0133
:10323000690158017B018A0101151105F9F0C801E6
:10324000969587958C9DE0018D9DD00D9C9DD00D10
:103250001124CE0DDF1DBE01C401F50109950097B3
:1032600011F4BE010DC0181619062CF47E01EC0CE9
:10327000FD1C0150104016950795DECF60E070E010
:10328000CB01ECE0CDB7DEB70C94301BA0E0B0E092
:10329000ECE4F9E10C94101BEC012B018A01EE2403
:1032A0006115710519F0FB019183808301151105EA
:1032B00049F0C8010297839728F060E070E080E051
:1032C00090E0CDC0F9908F2D99270E94611A892B2B
:1032D000C9F7FDE2FF1619F431E0E32E03C08BE2DB
:1032E000F81609F4F9900115110519F000311105CE
:1032F00079F4E0E3FE1661F48881883711F08835AF
:1033000039F4F980229600E110E0F2E0EF2A0BC0D8
:103310000115110541F480E3F81619F408E010E0F6
:1033200002C00AE010E00A30110599F00B301105D7
:1033300024F408301105B1F01EC000311105D9F494
:103340002FEFA22E2FEFB22E2FEFC22E2FE0D22E74
:103350001FC099E9A92E99E9B92E99E9C92E99E1D9
:10336000D92E16C08FEFA82E8FEFB82E8FEFC82E54
:103370008FE1D82E0DC09801442737FD4095542F7A
:103380006FEF7FEF8FEF9FEF0E94D41859016A0112
:1033900020E030E040E050E060E03801882477FC35
:1033A0008094982C8F2D80538A3010F4F82E0DC005
:1033B0008F2D81548A3118F4E9ECFE0E06C08F2D52
:1033C00081568A3140F5F9EAFF0E8F2D9927801733
:1033D00091070CF567FD1DC0A216B306C406D506FD
:1033E000A8F0CA01B901A40193010E948E189B01A3
:1033F000AC018F2D9927AA27BB27280F391F4A1FF9
:103400005B1F281739074A075B0710F46FEF01C0ED
:1034100061E0F990C7CF4114510451F0662311F0D7
:10342000219703C0E1FE04C02297F201D183C0833B
:10343000E0FE07C050954095309521953F4F4F4F86
:103440005F4F67FF0AC02FEF3FEF4FEF5FEF82E262
:1034500090E09093480480934704CA01B901E0E1E9
:10346000CDB7DEB70C942C1B1F93FC01992788273E
:10347000BC01E89411911032E9F3193010F01E30BC
:10348000C8F31B3251F01D3249F4689406C00E9403
:10349000701A610F711D811D911D119110531A3009
:1034A000B0F33EF490958095709561957F4F8F4F66
:1034B0009F4F1F91089591119EC080538A50E0F74D
:1034C0000895911198C0803219F089508550D0F735
:1034D0000895FB01DC0105900D920020E1F70895AD
:1034E000592F482F372F262F660F771F881F991FB8
:1034F000660F771F881F991F620F731F841F951F08
:10350000660F771F881F991F0895FA01CF93FF93C5
:10351000EF932230CCF02532BCF4C22F2C2F33276E
:1035200044275527FF93EF930E94D418EF91FF9102
:10353000605D6A330CF0695D6193B901CA01605046
:1035400070408040904051F710828F919F91CF91B1
:103550000C94FE1AFB019F01423074F0453264F472
:10356000642F77270E94AD18805D8A330CF0895D47
:103570008193CB010097A1F71082C9010C94FE1A28
:10358000DC01CB01FC01F999FECF06C0F2BDE1BD23
:10359000F89A319600B40D9241505040B8F7089512
:1035A000F999FECF92BD81BDF89A992780B508950B
:1035B000A8E1B0E042E050E00C94C21ADC01CB017B
:1035C00003C02D910E94E91A41505040D0F7089550
:1035D000262FF999FECF1FBA92BD81BD20BD0FB62F
:1035E000F894FA9AF99A0FBE019608950E94E81A83
:1035F000272F0C94E91A992788270895DC01FC01EC
:10360000672F71917723E1F7329704C07C916D9316
:1036100070836291AE17BF07C8F308952F923F924F
:103620004F925F926F927F928F929F92AF92BF92D2
:10363000CF92DF92EF92FF920F931F93CF93DF937E
:10364000CDB7DEB7CA1BDB0B0FB6F894DEBF0FBEDB
:10365000CDBF09942A88398848885F846E847D8428
:103660008C849B84AA84B984C884DF80EE80FD802A
:103670000C811B81AA81B981CE0FD11D0FB6F894A0
:0C368000DEBF0FBECDBFED010895FFCFEF
:10368C0009000D0A00060608000800202020202052
:0C369C00000000000000000010011701F9
:00000001FF
